{
  "_format": "hh-sol-artifact-1",
  "contractName": "MyNFT",
  "sourceName": "contracts/MyNFT.sol",
  "abi": [
    {
      "inputs": [],
      "stateMutability": "nonpayable",
      "type": "constructor"
    },
    {
      "anonymous": false,
      "inputs": [
        {
          "indexed": true,
          "internalType": "address",
          "name": "owner",
          "type": "address"
        },
        {
          "indexed": true,
          "internalType": "address",
          "name": "approved",
          "type": "address"
        },
        {
          "indexed": true,
          "internalType": "uint256",
          "name": "tokenId",
          "type": "uint256"
        }
      ],
      "name": "Approval",
      "type": "event"
    },
    {
      "anonymous": false,
      "inputs": [
        {
          "indexed": true,
          "internalType": "address",
          "name": "owner",
          "type": "address"
        },
        {
          "indexed": true,
          "internalType": "address",
          "name": "operator",
          "type": "address"
        },
        {
          "indexed": false,
          "internalType": "bool",
          "name": "approved",
          "type": "bool"
        }
      ],
      "name": "ApprovalForAll",
      "type": "event"
    },
    {
      "anonymous": false,
      "inputs": [
        {
          "indexed": true,
          "internalType": "address",
          "name": "previousOwner",
          "type": "address"
        },
        {
          "indexed": true,
          "internalType": "address",
          "name": "newOwner",
          "type": "address"
        }
      ],
      "name": "OwnershipTransferred",
      "type": "event"
    },
    {
      "anonymous": false,
      "inputs": [
        {
          "indexed": false,
          "internalType": "address",
          "name": "account",
          "type": "address"
        }
      ],
      "name": "Paused",
      "type": "event"
    },
    {
      "anonymous": false,
      "inputs": [
        {
          "indexed": true,
          "internalType": "address",
          "name": "from",
          "type": "address"
        },
        {
          "indexed": true,
          "internalType": "address",
          "name": "to",
          "type": "address"
        },
        {
          "indexed": true,
          "internalType": "uint256",
          "name": "tokenId",
          "type": "uint256"
        }
      ],
      "name": "Transfer",
      "type": "event"
    },
    {
      "anonymous": false,
      "inputs": [
        {
          "indexed": false,
          "internalType": "address",
          "name": "account",
          "type": "address"
        }
      ],
      "name": "Unpaused",
      "type": "event"
    },
    {
      "inputs": [
        {
          "internalType": "address",
          "name": "to",
          "type": "address"
        },
        {
          "internalType": "uint256",
          "name": "tokenId",
          "type": "uint256"
        }
      ],
      "name": "approve",
      "outputs": [],
      "stateMutability": "nonpayable",
      "type": "function"
    },
    {
      "inputs": [
        {
          "internalType": "address",
          "name": "owner",
          "type": "address"
        }
      ],
      "name": "balanceOf",
      "outputs": [
        {
          "internalType": "uint256",
          "name": "",
          "type": "uint256"
        }
      ],
      "stateMutability": "view",
      "type": "function"
    },
    {
      "inputs": [],
      "name": "count",
      "outputs": [
        {
          "internalType": "uint256",
          "name": "",
          "type": "uint256"
        }
      ],
      "stateMutability": "view",
      "type": "function"
    },
    {
      "inputs": [],
      "name": "currentSupply",
      "outputs": [
        {
          "internalType": "uint256",
          "name": "",
          "type": "uint256"
        }
      ],
      "stateMutability": "view",
      "type": "function"
    },
    {
      "inputs": [
        {
          "internalType": "uint256",
          "name": "tokenId",
          "type": "uint256"
        }
      ],
      "name": "getApproved",
      "outputs": [
        {
          "internalType": "address",
          "name": "",
          "type": "address"
        }
      ],
      "stateMutability": "view",
      "type": "function"
    },
    {
      "inputs": [
        {
          "internalType": "address",
          "name": "owner",
          "type": "address"
        },
        {
          "internalType": "address",
          "name": "operator",
          "type": "address"
        }
      ],
      "name": "isApprovedForAll",
      "outputs": [
        {
          "internalType": "bool",
          "name": "",
          "type": "bool"
        }
      ],
      "stateMutability": "view",
      "type": "function"
    },
    {
      "inputs": [
        {
          "internalType": "string",
          "name": "uri",
          "type": "string"
        }
      ],
      "name": "isContentOwned",
      "outputs": [
        {
          "internalType": "bool",
          "name": "",
          "type": "bool"
        }
      ],
      "stateMutability": "view",
      "type": "function"
    },
    {
      "inputs": [],
      "name": "maxPerWallet",
      "outputs": [
        {
          "internalType": "uint256",
          "name": "",
          "type": "uint256"
        }
      ],
      "stateMutability": "view",
      "type": "function"
    },
    {
      "inputs": [],
      "name": "maxSupply",
      "outputs": [
        {
          "internalType": "uint256",
          "name": "",
          "type": "uint256"
        }
      ],
      "stateMutability": "view",
      "type": "function"
    },
    {
      "inputs": [],
      "name": "mintPrice",
      "outputs": [
        {
          "internalType": "uint256",
          "name": "",
          "type": "uint256"
        }
      ],
      "stateMutability": "view",
      "type": "function"
    },
    {
      "inputs": [],
      "name": "name",
      "outputs": [
        {
          "internalType": "string",
          "name": "",
          "type": "string"
        }
      ],
      "stateMutability": "view",
      "type": "function"
    },
    {
      "inputs": [],
      "name": "owner",
      "outputs": [
        {
          "internalType": "address",
          "name": "",
          "type": "address"
        }
      ],
      "stateMutability": "view",
      "type": "function"
    },
    {
      "inputs": [
        {
          "internalType": "uint256",
          "name": "tokenId",
          "type": "uint256"
        }
      ],
      "name": "ownerOf",
      "outputs": [
        {
          "internalType": "address",
          "name": "",
          "type": "address"
        }
      ],
      "stateMutability": "view",
      "type": "function"
    },
    {
      "inputs": [],
      "name": "pause",
      "outputs": [],
      "stateMutability": "nonpayable",
      "type": "function"
    },
    {
      "inputs": [],
      "name": "paused",
      "outputs": [
        {
          "internalType": "bool",
          "name": "",
          "type": "bool"
        }
      ],
      "stateMutability": "view",
      "type": "function"
    },
    {
      "inputs": [
        {
          "internalType": "address",
          "name": "recipient",
          "type": "address"
        },
        {
          "internalType": "string",
          "name": "metadataURI",
          "type": "string"
        }
      ],
      "name": "payToMint",
      "outputs": [
        {
          "internalType": "uint256",
          "name": "",
          "type": "uint256"
        }
      ],
      "stateMutability": "payable",
      "type": "function"
    },
    {
      "inputs": [],
      "name": "renounceOwnership",
      "outputs": [],
      "stateMutability": "nonpayable",
      "type": "function"
    },
    {
      "inputs": [
        {
          "internalType": "address",
          "name": "to",
          "type": "address"
        },
        {
          "internalType": "string",
          "name": "uri",
          "type": "string"
        }
      ],
      "name": "safeMint",
      "outputs": [],
      "stateMutability": "nonpayable",
      "type": "function"
    },
    {
      "inputs": [
        {
          "internalType": "address",
          "name": "from",
          "type": "address"
        },
        {
          "internalType": "address",
          "name": "to",
          "type": "address"
        },
        {
          "internalType": "uint256",
          "name": "tokenId",
          "type": "uint256"
        }
      ],
      "name": "safeTransferFrom",
      "outputs": [],
      "stateMutability": "nonpayable",
      "type": "function"
    },
    {
      "inputs": [
        {
          "internalType": "address",
          "name": "from",
          "type": "address"
        },
        {
          "internalType": "address",
          "name": "to",
          "type": "address"
        },
        {
          "internalType": "uint256",
          "name": "tokenId",
          "type": "uint256"
        },
        {
          "internalType": "bytes",
          "name": "data",
          "type": "bytes"
        }
      ],
      "name": "safeTransferFrom",
      "outputs": [],
      "stateMutability": "nonpayable",
      "type": "function"
    },
    {
      "inputs": [
        {
          "internalType": "address",
          "name": "operator",
          "type": "address"
        },
        {
          "internalType": "bool",
          "name": "approved",
          "type": "bool"
        }
      ],
      "name": "setApprovalForAll",
      "outputs": [],
      "stateMutability": "nonpayable",
      "type": "function"
    },
    {
      "inputs": [
        {
          "internalType": "bytes4",
          "name": "interfaceId",
          "type": "bytes4"
        }
      ],
      "name": "supportsInterface",
      "outputs": [
        {
          "internalType": "bool",
          "name": "",
          "type": "bool"
        }
      ],
      "stateMutability": "view",
      "type": "function"
    },
    {
      "inputs": [],
      "name": "symbol",
      "outputs": [
        {
          "internalType": "string",
          "name": "",
          "type": "string"
        }
      ],
      "stateMutability": "view",
      "type": "function"
    },
    {
      "inputs": [
        {
          "internalType": "uint256",
          "name": "tokenId",
          "type": "uint256"
        }
      ],
      "name": "tokenURI",
      "outputs": [
        {
          "internalType": "string",
          "name": "",
          "type": "string"
        }
      ],
      "stateMutability": "view",
      "type": "function"
    },
    {
      "inputs": [
        {
          "internalType": "address",
          "name": "from",
          "type": "address"
        },
        {
          "internalType": "address",
          "name": "to",
          "type": "address"
        },
        {
          "internalType": "uint256",
          "name": "tokenId",
          "type": "uint256"
        }
      ],
      "name": "transferFrom",
      "outputs": [],
      "stateMutability": "nonpayable",
      "type": "function"
    },
    {
      "inputs": [
        {
          "internalType": "address",
          "name": "newOwner",
          "type": "address"
        }
      ],
      "name": "transferOwnership",
      "outputs": [],
      "stateMutability": "nonpayable",
      "type": "function"
    },
    {
      "inputs": [],
      "name": "unpause",
      "outputs": [],
      "stateMutability": "nonpayable",
      "type": "function"
    },
    {
      "inputs": [],
      "name": "withdraw",
      "outputs": [],
      "stateMutability": "nonpayable",
      "type": "function"
    },
    {
      "inputs": [],
      "name": "withdrawWallet",
      "outputs": [
        {
          "internalType": "address payable",
          "name": "",
          "type": "address"
        }
      ],
      "stateMutability": "view",
      "type": "function"
    }
  ],
  "bytecode": "0x60806040523480156200001157600080fd5b506040518060400160405280600581526020017f4d794e46540000000000000000000000000000000000000000000000000000008152506040518060400160405280600381526020017f4d544b0000000000000000000000000000000000000000000000000000000000815250816000908051906020019062000096929190620001e7565b508060019080519060200190620000af929190620001e7565b5050506000600760006101000a81548160ff021916908315150217905550620000ed620000e16200011960201b60201c565b6200012160201b60201c565b66470de4df82000060088190555060006009819055506014600a819055506005600b81905550620002fc565b600033905090565b6000600760019054906101000a900473ffffffffffffffffffffffffffffffffffffffff16905081600760016101000a81548173ffffffffffffffffffffffffffffffffffffffff021916908373ffffffffffffffffffffffffffffffffffffffff1602179055508173ffffffffffffffffffffffffffffffffffffffff168173ffffffffffffffffffffffffffffffffffffffff167f8be0079c531659141344cd1fd0a4f28419497f9722a3daafe3b4186f6b6457e060405160405180910390a35050565b828054620001f590620002c6565b90600052602060002090601f01602090048101928262000219576000855562000265565b82601f106200023457805160ff191683800117855562000265565b8280016001018555821562000265579182015b828111156200026457825182559160200191906001019062000247565b5b50905062000274919062000278565b5090565b5b808211156200029357600081600090555060010162000279565b5090565b7f4e487b7100000000000000000000000000000000000000000000000000000000600052602260045260246000fd5b60006002820490506001821680620002df57607f821691505b60208210811415620002f657620002f562000297565b5b50919050565b613756806200030c6000396000f3fe6080604052600436106101c25760003560e01c806370a08231116100f75780639f1cabc611610095578063d204c45e11610064578063d204c45e14610611578063d5abeb011461063a578063e985e9c514610665578063f2fde38b146106a2576101c2565b80639f1cabc614610545578063a22cb46514610582578063b88d4fde146105ab578063c87b56dd146105d4576101c2565b80638456cb59116100d15780638456cb59146104ad57806385d178f4146104c45780638da5cb5b146104ef57806395d89b411461051a576101c2565b806370a082311461042e578063715018a61461046b578063771282f614610482576101c2565b80633f4ba83a116101645780635c975abb1161013e5780635c975abb1461036b578063615fd9e2146103965780636352211e146103c65780636817c76c14610403576101c2565b80633f4ba83a1461030057806342842e0e14610317578063453c231014610340576101c2565b8063081812fc116101a0578063081812fc1461025a578063095ea7b31461029757806323b872dd146102c05780633ccfd60b146102e9576101c2565b806301ffc9a7146101c757806306661abd1461020457806306fdde031461022f575b600080fd5b3480156101d357600080fd5b506101ee60048036038101906101e9919061232a565b6106cb565b6040516101fb9190612372565b60405180910390f35b34801561021057600080fd5b506102196107ad565b60405161022691906123a6565b60405180910390f35b34801561023b57600080fd5b506102446107be565b604051610251919061245a565b60405180910390f35b34801561026657600080fd5b50610281600480360381019061027c91906124a8565b610850565b60405161028e9190612516565b60405180910390f35b3480156102a357600080fd5b506102be60048036038101906102b9919061255d565b610896565b005b3480156102cc57600080fd5b506102e760048036038101906102e2919061259d565b6109ae565b005b3480156102f557600080fd5b506102fe610a0e565b005b34801561030c57600080fd5b50610315610ae7565b005b34801561032357600080fd5b5061033e6004803603810190610339919061259d565b610af9565b005b34801561034c57600080fd5b50610355610b19565b60405161036291906123a6565b60405180910390f35b34801561037757600080fd5b50610380610b1f565b60405161038d9190612372565b60405180910390f35b6103b060048036038101906103ab9190612725565b610b36565b6040516103bd91906123a6565b60405180910390f35b3480156103d257600080fd5b506103ed60048036038101906103e891906124a8565b610c5d565b6040516103fa9190612516565b60405180910390f35b34801561040f57600080fd5b50610418610d0f565b60405161042591906123a6565b60405180910390f35b34801561043a57600080fd5b5061045560048036038101906104509190612781565b610d15565b60405161046291906123a6565b60405180910390f35b34801561047757600080fd5b50610480610dcd565b005b34801561048e57600080fd5b50610497610de1565b6040516104a491906123a6565b60405180910390f35b3480156104b957600080fd5b506104c2610de7565b005b3480156104d057600080fd5b506104d9610df9565b6040516104e691906127cf565b60405180910390f35b3480156104fb57600080fd5b50610504610e1f565b6040516105119190612516565b60405180910390f35b34801561052657600080fd5b5061052f610e49565b60405161053c919061245a565b60405180910390f35b34801561055157600080fd5b5061056c600480360381019061056791906127ea565b610edb565b6040516105799190612372565b60405180910390f35b34801561058e57600080fd5b506105a960048036038101906105a4919061285f565b610f16565b005b3480156105b757600080fd5b506105d260048036038101906105cd9190612940565b610f2c565b005b3480156105e057600080fd5b506105fb60048036038101906105f691906124a8565b610f8e565b604051610608919061245a565b60405180910390f35b34801561061d57600080fd5b5061063860048036038101906106339190612725565b610fa0565b005b34801561064657600080fd5b5061064f610fd9565b60405161065c91906123a6565b60405180910390f35b34801561067157600080fd5b5061068c600480360381019061068791906129c3565b610fdf565b6040516106999190612372565b60405180910390f35b3480156106ae57600080fd5b506106c960048036038101906106c49190612781565b611073565b005b60007f80ac58cd000000000000000000000000000000000000000000000000000000007bffffffffffffffffffffffffffffffffffffffffffffffffffffffff1916827bffffffffffffffffffffffffffffffffffffffffffffffffffffffff1916148061079657507f5b5e139f000000000000000000000000000000000000000000000000000000007bffffffffffffffffffffffffffffffffffffffffffffffffffffffff1916827bffffffffffffffffffffffffffffffffffffffffffffffffffffffff1916145b806107a657506107a5826110f7565b5b9050919050565b60006107b9600e611161565b905090565b6060600080546107cd90612a32565b80601f01602080910402602001604051908101604052809291908181526020018280546107f990612a32565b80156108465780601f1061081b57610100808354040283529160200191610846565b820191906000526020600020905b81548152906001019060200180831161082957829003601f168201915b5050505050905090565b600061085b8261116f565b6004600083815260200190815260200160002060009054906101000a900473ffffffffffffffffffffffffffffffffffffffff169050919050565b60006108a182610c5d565b90508073ffffffffffffffffffffffffffffffffffffffff168373ffffffffffffffffffffffffffffffffffffffff161415610912576040517f08c379a000000000000000000000000000000000000000000000000000000000815260040161090990612ad6565b60405180910390fd5b8073ffffffffffffffffffffffffffffffffffffffff166109316111ba565b73ffffffffffffffffffffffffffffffffffffffff161480610960575061095f8161095a6111ba565b610fdf565b5b61099f576040517f08c379a000000000000000000000000000000000000000000000000000000000815260040161099690612b68565b60405180910390fd5b6109a983836111c2565b505050565b6109bf6109b96111ba565b8261127b565b6109fe576040517f08c379a00000000000000000000000000000000000000000000000000000000081526004016109f590612bfa565b60405180910390fd5b610a09838383611310565b505050565b610a16611577565b6000600c60009054906101000a900473ffffffffffffffffffffffffffffffffffffffff1673ffffffffffffffffffffffffffffffffffffffff1647604051610a5e90612c4b565b60006040518083038185875af1925050503d8060008114610a9b576040519150601f19603f3d011682016040523d82523d6000602084013e610aa0565b606091505b5050905080610ae4576040517f08c379a0000000000000000000000000000000000000000000000000000000008152600401610adb90612cac565b60405180910390fd5b50565b610aef611577565b610af76115f5565b565b610b1483838360405180602001604052806000815250610f2c565b505050565b600b5481565b6000600760009054906101000a900460ff16905090565b60006001600d83604051610b4a9190612d08565b908152602001604051809103902060009054906101000a900460ff1660ff161415610baa576040517f08c379a0000000000000000000000000000000000000000000000000000000008152600401610ba190612d6b565b60405180910390fd5b600854341015610bef576040517f08c379a0000000000000000000000000000000000000000000000000000000008152600401610be690612dd7565b60405180910390fd5b6000610bfb600e611161565b9050610c07600e611658565b6001600d84604051610c199190612d08565b908152602001604051809103902060006101000a81548160ff021916908360ff160217905550610c49338261166e565b610c538184611848565b8091505092915050565b6000806002600084815260200190815260200160002060009054906101000a900473ffffffffffffffffffffffffffffffffffffffff169050600073ffffffffffffffffffffffffffffffffffffffff168173ffffffffffffffffffffffffffffffffffffffff161415610d06576040517f08c379a0000000000000000000000000000000000000000000000000000000008152600401610cfd90612e43565b60405180910390fd5b80915050919050565b60085481565b60008073ffffffffffffffffffffffffffffffffffffffff168273ffffffffffffffffffffffffffffffffffffffff161415610d86576040517f08c379a0000000000000000000000000000000000000000000000000000000008152600401610d7d90612ed5565b60405180910390fd5b600360008373ffffffffffffffffffffffffffffffffffffffff1673ffffffffffffffffffffffffffffffffffffffff168152602001908152602001600020549050919050565b610dd5611577565b610ddf60006118bc565b565b60095481565b610def611577565b610df7611982565b565b600c60009054906101000a900473ffffffffffffffffffffffffffffffffffffffff1681565b6000600760019054906101000a900473ffffffffffffffffffffffffffffffffffffffff16905090565b606060018054610e5890612a32565b80601f0160208091040260200160405190810160405280929190818152602001828054610e8490612a32565b8015610ed15780601f10610ea657610100808354040283529160200191610ed1565b820191906000526020600020905b815481529060010190602001808311610eb457829003601f168201915b5050505050905090565b60006001600d83604051610eef9190612d08565b908152602001604051809103902060009054906101000a900460ff1660ff16149050919050565b610f28610f216111ba565b83836119e5565b5050565b610f3d610f376111ba565b8361127b565b610f7c576040517f08c379a0000000000000000000000000000000000000000000000000000000008152600401610f7390612bfa565b60405180910390fd5b610f8884848484611b52565b50505050565b6060610f9982611bae565b9050919050565b610fa8611577565b6000610fb4600e611161565b9050610fc0600e611658565b610fca8382611cc1565b610fd48183611848565b505050565b600a5481565b6000600560008473ffffffffffffffffffffffffffffffffffffffff1673ffffffffffffffffffffffffffffffffffffffff16815260200190815260200160002060008373ffffffffffffffffffffffffffffffffffffffff1673ffffffffffffffffffffffffffffffffffffffff16815260200190815260200160002060009054906101000a900460ff16905092915050565b61107b611577565b600073ffffffffffffffffffffffffffffffffffffffff168173ffffffffffffffffffffffffffffffffffffffff1614156110eb576040517f08c379a00000000000000000000000000000000000000000000000000000000081526004016110e290612f67565b60405180910390fd5b6110f4816118bc565b50565b60007f01ffc9a7000000000000000000000000000000000000000000000000000000007bffffffffffffffffffffffffffffffffffffffffffffffffffffffff1916827bffffffffffffffffffffffffffffffffffffffffffffffffffffffff1916149050919050565b600081600001549050919050565b61117881611cdf565b6111b7576040517f08c379a00000000000000000000000000000000000000000000000000000000081526004016111ae90612e43565b60405180910390fd5b50565b600033905090565b816004600083815260200190815260200160002060006101000a81548173ffffffffffffffffffffffffffffffffffffffff021916908373ffffffffffffffffffffffffffffffffffffffff160217905550808273ffffffffffffffffffffffffffffffffffffffff1661123583610c5d565b73ffffffffffffffffffffffffffffffffffffffff167f8c5be1e5ebec7d5bd14f71427d1e84f3dd0314c0f7b2291e5b200ac8c7c3b92560405160405180910390a45050565b60008061128783610c5d565b90508073ffffffffffffffffffffffffffffffffffffffff168473ffffffffffffffffffffffffffffffffffffffff1614806112c957506112c88185610fdf565b5b8061130757508373ffffffffffffffffffffffffffffffffffffffff166112ef84610850565b73ffffffffffffffffffffffffffffffffffffffff16145b91505092915050565b8273ffffffffffffffffffffffffffffffffffffffff1661133082610c5d565b73ffffffffffffffffffffffffffffffffffffffff1614611386576040517f08c379a000000000000000000000000000000000000000000000000000000000815260040161137d90612ff9565b60405180910390fd5b600073ffffffffffffffffffffffffffffffffffffffff168273ffffffffffffffffffffffffffffffffffffffff1614156113f6576040517f08c379a00000000000000000000000000000000000000000000000000000000081526004016113ed9061308b565b60405180910390fd5b611401838383611d4b565b61140c6000826111c2565b6001600360008573ffffffffffffffffffffffffffffffffffffffff1673ffffffffffffffffffffffffffffffffffffffff168152602001908152602001600020600082825461145c91906130da565b925050819055506001600360008473ffffffffffffffffffffffffffffffffffffffff1673ffffffffffffffffffffffffffffffffffffffff16815260200190815260200160002060008282546114b3919061310e565b92505081905550816002600083815260200190815260200160002060006101000a81548173ffffffffffffffffffffffffffffffffffffffff021916908373ffffffffffffffffffffffffffffffffffffffff160217905550808273ffffffffffffffffffffffffffffffffffffffff168473ffffffffffffffffffffffffffffffffffffffff167fddf252ad1be2c89b69c2b068fc378daa952ba7f163c4a11628f55a4df523b3ef60405160405180910390a4611572838383611d63565b505050565b61157f6111ba565b73ffffffffffffffffffffffffffffffffffffffff1661159d610e1f565b73ffffffffffffffffffffffffffffffffffffffff16146115f3576040517f08c379a00000000000000000000000000000000000000000000000000000000081526004016115ea906131b0565b60405180910390fd5b565b6115fd611d68565b6000600760006101000a81548160ff0219169083151502179055507f5db9ee0a495bf2e6ff9c91a7834c1ba4fdd244a5e8aa4e537bd38aeae4b073aa6116416111ba565b60405161164e9190612516565b60405180910390a1565b6001816000016000828254019250508190555050565b600073ffffffffffffffffffffffffffffffffffffffff168273ffffffffffffffffffffffffffffffffffffffff1614156116de576040517f08c379a00000000000000000000000000000000000000000000000000000000081526004016116d59061321c565b60405180910390fd5b6116e781611cdf565b15611727576040517f08c379a000000000000000000000000000000000000000000000000000000000815260040161171e90613288565b60405180910390fd5b61173360008383611d4b565b6001600360008473ffffffffffffffffffffffffffffffffffffffff1673ffffffffffffffffffffffffffffffffffffffff1681526020019081526020016000206000828254611783919061310e565b92505081905550816002600083815260200190815260200160002060006101000a81548173ffffffffffffffffffffffffffffffffffffffff021916908373ffffffffffffffffffffffffffffffffffffffff160217905550808273ffffffffffffffffffffffffffffffffffffffff16600073ffffffffffffffffffffffffffffffffffffffff167fddf252ad1be2c89b69c2b068fc378daa952ba7f163c4a11628f55a4df523b3ef60405160405180910390a461184460008383611d63565b5050565b61185182611cdf565b611890576040517f08c379a00000000000000000000000000000000000000000000000000000000081526004016118879061331a565b60405180910390fd5b806006600084815260200190815260200160002090805190602001906118b792919061221b565b505050565b6000600760019054906101000a900473ffffffffffffffffffffffffffffffffffffffff16905081600760016101000a81548173ffffffffffffffffffffffffffffffffffffffff021916908373ffffffffffffffffffffffffffffffffffffffff1602179055508173ffffffffffffffffffffffffffffffffffffffff168173ffffffffffffffffffffffffffffffffffffffff167f8be0079c531659141344cd1fd0a4f28419497f9722a3daafe3b4186f6b6457e060405160405180910390a35050565b61198a611db1565b6001600760006101000a81548160ff0219169083151502179055507f62e78cea01bee320cd4e420270b5ea74000d11b0c9f74754ebdbfc544b05a2586119ce6111ba565b6040516119db9190612516565b60405180910390a1565b8173ffffffffffffffffffffffffffffffffffffffff168373ffffffffffffffffffffffffffffffffffffffff161415611a54576040517f08c379a0000000000000000000000000000000000000000000000000000000008152600401611a4b90613386565b60405180910390fd5b80600560008573ffffffffffffffffffffffffffffffffffffffff1673ffffffffffffffffffffffffffffffffffffffff16815260200190815260200160002060008473ffffffffffffffffffffffffffffffffffffffff1673ffffffffffffffffffffffffffffffffffffffff16815260200190815260200160002060006101000a81548160ff0219169083151502179055508173ffffffffffffffffffffffffffffffffffffffff168373ffffffffffffffffffffffffffffffffffffffff167f17307eab39ab6107e8899845ad3d59bd9653f200f220920489ca2b5937696c3183604051611b459190612372565b60405180910390a3505050565b611b5d848484611310565b611b6984848484611dfb565b611ba8576040517f08c379a0000000000000000000000000000000000000000000000000000000008152600401611b9f90613418565b60405180910390fd5b50505050565b6060611bb98261116f565b6000600660008481526020019081526020016000208054611bd990612a32565b80601f0160208091040260200160405190810160405280929190818152602001828054611c0590612a32565b8015611c525780601f10611c2757610100808354040283529160200191611c52565b820191906000526020600020905b815481529060010190602001808311611c3557829003601f168201915b505050505090506000611c63611f92565b9050600081511415611c79578192505050611cbc565b600082511115611cae578082604051602001611c96929190613438565b60405160208183030381529060405292505050611cbc565b611cb784611fcf565b925050505b919050565b611cdb828260405180602001604052806000815250612037565b5050565b60008073ffffffffffffffffffffffffffffffffffffffff166002600084815260200190815260200160002060009054906101000a900473ffffffffffffffffffffffffffffffffffffffff1673ffffffffffffffffffffffffffffffffffffffff1614159050919050565b611d53611db1565b611d5e838383612092565b505050565b505050565b611d70610b1f565b611daf576040517f08c379a0000000000000000000000000000000000000000000000000000000008152600401611da6906134a8565b60405180910390fd5b565b611db9610b1f565b15611df9576040517f08c379a0000000000000000000000000000000000000000000000000000000008152600401611df090613514565b60405180910390fd5b565b6000611e1c8473ffffffffffffffffffffffffffffffffffffffff16612097565b15611f85578373ffffffffffffffffffffffffffffffffffffffff1663150b7a02611e456111ba565b8786866040518563ffffffff1660e01b8152600401611e679493929190613589565b602060405180830381600087803b158015611e8157600080fd5b505af1925050508015611eb257506040513d601f19601f82011682018060405250810190611eaf91906135ea565b60015b611f35573d8060008114611ee2576040519150601f19603f3d011682016040523d82523d6000602084013e611ee7565b606091505b50600081511415611f2d576040517f08c379a0000000000000000000000000000000000000000000000000000000008152600401611f2490613418565b60405180910390fd5b805181602001fd5b63150b7a0260e01b7bffffffffffffffffffffffffffffffffffffffffffffffffffffffff1916817bffffffffffffffffffffffffffffffffffffffffffffffffffffffff191614915050611f8a565b600190505b949350505050565b60606040518060400160405280600781526020017f697066733a2f2f00000000000000000000000000000000000000000000000000815250905090565b6060611fda8261116f565b6000611fe4611f92565b90506000815111612004576040518060200160405280600081525061202f565b8061200e846120ba565b60405160200161201f929190613438565b6040516020818303038152906040525b915050919050565b612041838361166e565b61204e6000848484611dfb565b61208d576040517f08c379a000000000000000000000000000000000000000000000000000000000815260040161208490613418565b60405180910390fd5b505050565b505050565b6000808273ffffffffffffffffffffffffffffffffffffffff163b119050919050565b60606000821415612102576040518060400160405280600181526020017f30000000000000000000000000000000000000000000000000000000000000008152509050612216565b600082905060005b6000821461213457808061211d90613617565b915050600a8261212d919061368f565b915061210a565b60008167ffffffffffffffff8111156121505761214f6125fa565b5b6040519080825280601f01601f1916602001820160405280156121825781602001600182028036833780820191505090505b5090505b6000851461220f5760018261219b91906130da565b9150600a856121aa91906136c0565b60306121b6919061310e565b60f81b8183815181106121cc576121cb6136f1565b5b60200101907effffffffffffffffffffffffffffffffffffffffffffffffffffffffffffff1916908160001a905350600a85612208919061368f565b9450612186565b8093505050505b919050565b82805461222790612a32565b90600052602060002090601f0160209004810192826122495760008555612290565b82601f1061226257805160ff1916838001178555612290565b82800160010185558215612290579182015b8281111561228f578251825591602001919060010190612274565b5b50905061229d91906122a1565b5090565b5b808211156122ba5760008160009055506001016122a2565b5090565b6000604051905090565b600080fd5b600080fd5b60007fffffffff0000000000000000000000000000000000000000000000000000000082169050919050565b612307816122d2565b811461231257600080fd5b50565b600081359050612324816122fe565b92915050565b6000602082840312156123405761233f6122c8565b5b600061234e84828501612315565b91505092915050565b60008115159050919050565b61236c81612357565b82525050565b60006020820190506123876000830184612363565b92915050565b6000819050919050565b6123a08161238d565b82525050565b60006020820190506123bb6000830184612397565b92915050565b600081519050919050565b600082825260208201905092915050565b60005b838110156123fb5780820151818401526020810190506123e0565b8381111561240a576000848401525b50505050565b6000601f19601f8301169050919050565b600061242c826123c1565b61243681856123cc565b93506124468185602086016123dd565b61244f81612410565b840191505092915050565b600060208201905081810360008301526124748184612421565b905092915050565b6124858161238d565b811461249057600080fd5b50565b6000813590506124a28161247c565b92915050565b6000602082840312156124be576124bd6122c8565b5b60006124cc84828501612493565b91505092915050565b600073ffffffffffffffffffffffffffffffffffffffff82169050919050565b6000612500826124d5565b9050919050565b612510816124f5565b82525050565b600060208201905061252b6000830184612507565b92915050565b61253a816124f5565b811461254557600080fd5b50565b60008135905061255781612531565b92915050565b60008060408385031215612574576125736122c8565b5b600061258285828601612548565b925050602061259385828601612493565b9150509250929050565b6000806000606084860312156125b6576125b56122c8565b5b60006125c486828701612548565b93505060206125d586828701612548565b92505060406125e686828701612493565b9150509250925092565b600080fd5b600080fd5b7f4e487b7100000000000000000000000000000000000000000000000000000000600052604160045260246000fd5b61263282612410565b810181811067ffffffffffffffff82111715612651576126506125fa565b5b80604052505050565b60006126646122be565b90506126708282612629565b919050565b600067ffffffffffffffff8211156126905761268f6125fa565b5b61269982612410565b9050602081019050919050565b82818337600083830152505050565b60006126c86126c384612675565b61265a565b9050828152602081018484840111156126e4576126e36125f5565b5b6126ef8482856126a6565b509392505050565b600082601f83011261270c5761270b6125f0565b5b813561271c8482602086016126b5565b91505092915050565b6000806040838503121561273c5761273b6122c8565b5b600061274a85828601612548565b925050602083013567ffffffffffffffff81111561276b5761276a6122cd565b5b612777858286016126f7565b9150509250929050565b600060208284031215612797576127966122c8565b5b60006127a584828501612548565b91505092915050565b60006127b9826124d5565b9050919050565b6127c9816127ae565b82525050565b60006020820190506127e460008301846127c0565b92915050565b600060208284031215612800576127ff6122c8565b5b600082013567ffffffffffffffff81111561281e5761281d6122cd565b5b61282a848285016126f7565b91505092915050565b61283c81612357565b811461284757600080fd5b50565b60008135905061285981612833565b92915050565b60008060408385031215612876576128756122c8565b5b600061288485828601612548565b92505060206128958582860161284a565b9150509250929050565b600067ffffffffffffffff8211156128ba576128b96125fa565b5b6128c382612410565b9050602081019050919050565b60006128e36128de8461289f565b61265a565b9050828152602081018484840111156128ff576128fe6125f5565b5b61290a8482856126a6565b509392505050565b600082601f830112612927576129266125f0565b5b81356129378482602086016128d0565b91505092915050565b6000806000806080858703121561295a576129596122c8565b5b600061296887828801612548565b945050602061297987828801612548565b935050604061298a87828801612493565b925050606085013567ffffffffffffffff8111156129ab576129aa6122cd565b5b6129b787828801612912565b91505092959194509250565b600080604083850312156129da576129d96122c8565b5b60006129e885828601612548565b92505060206129f985828601612548565b9150509250929050565b7f4e487b7100000000000000000000000000000000000000000000000000000000600052602260045260246000fd5b60006002820490506001821680612a4a57607f821691505b60208210811415612a5e57612a5d612a03565b5b50919050565b7f4552433732313a20617070726f76616c20746f2063757272656e74206f776e6560008201527f7200000000000000000000000000000000000000000000000000000000000000602082015250565b6000612ac06021836123cc565b9150612acb82612a64565b604082019050919050565b60006020820190508181036000830152612aef81612ab3565b9050919050565b7f4552433732313a20617070726f76652063616c6c6572206973206e6f7420746f60008201527f6b656e206f776e6572206e6f7220617070726f76656420666f7220616c6c0000602082015250565b6000612b52603e836123cc565b9150612b5d82612af6565b604082019050919050565b60006020820190508181036000830152612b8181612b45565b9050919050565b7f4552433732313a2063616c6c6572206973206e6f7420746f6b656e206f776e6560008201527f72206e6f7220617070726f766564000000000000000000000000000000000000602082015250565b6000612be4602e836123cc565b9150612bef82612b88565b604082019050919050565b60006020820190508181036000830152612c1381612bd7565b9050919050565b600081905092915050565b50565b6000612c35600083612c1a565b9150612c4082612c25565b600082019050919050565b6000612c5682612c28565b9150819050919050565b7f5769746864726177206661696c65640000000000000000000000000000000000600082015250565b6000612c96600f836123cc565b9150612ca182612c60565b602082019050919050565b60006020820190508181036000830152612cc581612c89565b9050919050565b600081905092915050565b6000612ce2826123c1565b612cec8185612ccc565b9350612cfc8185602086016123dd565b80840191505092915050565b6000612d148284612cd7565b915081905092915050565b7f4e465420616c7265616479206d696e7465642100000000000000000000000000600082015250565b6000612d556013836123cc565b9150612d6082612d1f565b602082019050919050565b60006020820190508181036000830152612d8481612d48565b9050919050565b7f4e65656420746f20706179207570210000000000000000000000000000000000600082015250565b6000612dc1600f836123cc565b9150612dcc82612d8b565b602082019050919050565b60006020820190508181036000830152612df081612db4565b9050919050565b7f4552433732313a20696e76616c696420746f6b656e2049440000000000000000600082015250565b6000612e2d6018836123cc565b9150612e3882612df7565b602082019050919050565b60006020820190508181036000830152612e5c81612e20565b9050919050565b7f4552433732313a2061646472657373207a65726f206973206e6f74206120766160008201527f6c6964206f776e65720000000000000000000000000000000000000000000000602082015250565b6000612ebf6029836123cc565b9150612eca82612e63565b604082019050919050565b60006020820190508181036000830152612eee81612eb2565b9050919050565b7f4f776e61626c653a206e6577206f776e657220697320746865207a65726f206160008201527f6464726573730000000000000000000000000000000000000000000000000000602082015250565b6000612f516026836123cc565b9150612f5c82612ef5565b604082019050919050565b60006020820190508181036000830152612f8081612f44565b9050919050565b7f4552433732313a207472616e736665722066726f6d20696e636f72726563742060008201527f6f776e6572000000000000000000000000000000000000000000000000000000602082015250565b6000612fe36025836123cc565b9150612fee82612f87565b604082019050919050565b6000602082019050818103600083015261301281612fd6565b9050919050565b7f4552433732313a207472616e7366657220746f20746865207a65726f2061646460008201527f7265737300000000000000000000000000000000000000000000000000000000602082015250565b60006130756024836123cc565b915061308082613019565b604082019050919050565b600060208201905081810360008301526130a481613068565b9050919050565b7f4e487b7100000000000000000000000000000000000000000000000000000000600052601160045260246000fd5b60006130e58261238d565b91506130f08361238d565b925082821015613103576131026130ab565b5b828203905092915050565b60006131198261238d565b91506131248361238d565b9250827fffffffffffffffffffffffffffffffffffffffffffffffffffffffffffffffff03821115613159576131586130ab565b5b828201905092915050565b7f4f776e61626c653a2063616c6c6572206973206e6f7420746865206f776e6572600082015250565b600061319a6020836123cc565b91506131a582613164565b602082019050919050565b600060208201905081810360008301526131c98161318d565b9050919050565b7f4552433732313a206d696e7420746f20746865207a65726f2061646472657373600082015250565b60006132066020836123cc565b9150613211826131d0565b602082019050919050565b60006020820190508181036000830152613235816131f9565b9050919050565b7f4552433732313a20746f6b656e20616c7265616479206d696e74656400000000600082015250565b6000613272601c836123cc565b915061327d8261323c565b602082019050919050565b600060208201905081810360008301526132a181613265565b9050919050565b7f45524337323155524953746f726167653a2055524920736574206f66206e6f6e60008201527f6578697374656e7420746f6b656e000000000000000000000000000000000000602082015250565b6000613304602e836123cc565b915061330f826132a8565b604082019050919050565b60006020820190508181036000830152613333816132f7565b9050919050565b7f4552433732313a20617070726f766520746f2063616c6c657200000000000000600082015250565b60006133706019836123cc565b915061337b8261333a565b602082019050919050565b6000602082019050818103600083015261339f81613363565b9050919050565b7f4552433732313a207472616e7366657220746f206e6f6e20455243373231526560008201527f63656976657220696d706c656d656e7465720000000000000000000000000000602082015250565b60006134026032836123cc565b915061340d826133a6565b604082019050919050565b60006020820190508181036000830152613431816133f5565b9050919050565b60006134448285612cd7565b91506134508284612cd7565b91508190509392505050565b7f5061757361626c653a206e6f7420706175736564000000000000000000000000600082015250565b60006134926014836123cc565b915061349d8261345c565b602082019050919050565b600060208201905081810360008301526134c181613485565b9050919050565b7f5061757361626c653a2070617573656400000000000000000000000000000000600082015250565b60006134fe6010836123cc565b9150613509826134c8565b602082019050919050565b6000602082019050818103600083015261352d816134f1565b9050919050565b600081519050919050565b600082825260208201905092915050565b600061355b82613534565b613565818561353f565b93506135758185602086016123dd565b61357e81612410565b840191505092915050565b600060808201905061359e6000830187612507565b6135ab6020830186612507565b6135b86040830185612397565b81810360608301526135ca8184613550565b905095945050505050565b6000815190506135e4816122fe565b92915050565b600060208284031215613600576135ff6122c8565b5b600061360e848285016135d5565b91505092915050565b60006136228261238d565b91507fffffffffffffffffffffffffffffffffffffffffffffffffffffffffffffffff821415613655576136546130ab565b5b600182019050919050565b7f4e487b7100000000000000000000000000000000000000000000000000000000600052601260045260246000fd5b600061369a8261238d565b91506136a58361238d565b9250826136b5576136b4613660565b5b828204905092915050565b60006136cb8261238d565b91506136d68361238d565b9250826136e6576136e5613660565b5b828206905092915050565b7f4e487b7100000000000000000000000000000000000000000000000000000000600052603260045260246000fdfea264697066735822122079120303eb13ab18c7b6287b3093dad1920a1a168c9f209e0dfc300f7764339464736f6c63430008090033",
  "linkReferences": {},
  "deployedLinkReferences": {}
}