{
  "_format": "hh-sol-artifact-1",
  "contractName": "MyNFT",
  "sourceName": "contracts/MyNFT.sol",
  "abi": [
    {
      "inputs": [],
      "stateMutability": "nonpayable",
      "type": "constructor"
    },
    {
      "anonymous": false,
      "inputs": [
        {
          "indexed": true,
          "internalType": "address",
          "name": "owner",
          "type": "address"
        },
        {
          "indexed": true,
          "internalType": "address",
          "name": "approved",
          "type": "address"
        },
        {
          "indexed": true,
          "internalType": "uint256",
          "name": "tokenId",
          "type": "uint256"
        }
      ],
      "name": "Approval",
      "type": "event"
    },
    {
      "anonymous": false,
      "inputs": [
        {
          "indexed": true,
          "internalType": "address",
          "name": "owner",
          "type": "address"
        },
        {
          "indexed": true,
          "internalType": "address",
          "name": "operator",
          "type": "address"
        },
        {
          "indexed": false,
          "internalType": "bool",
          "name": "approved",
          "type": "bool"
        }
      ],
      "name": "ApprovalForAll",
      "type": "event"
    },
    {
      "anonymous": false,
      "inputs": [
        {
          "indexed": true,
          "internalType": "address",
          "name": "previousOwner",
          "type": "address"
        },
        {
          "indexed": true,
          "internalType": "address",
          "name": "newOwner",
          "type": "address"
        }
      ],
      "name": "OwnershipTransferred",
      "type": "event"
    },
    {
      "anonymous": false,
      "inputs": [
        {
          "indexed": true,
          "internalType": "address",
          "name": "from",
          "type": "address"
        },
        {
          "indexed": true,
          "internalType": "address",
          "name": "to",
          "type": "address"
        },
        {
          "indexed": true,
          "internalType": "uint256",
          "name": "tokenId",
          "type": "uint256"
        }
      ],
      "name": "Transfer",
      "type": "event"
    },
    {
      "inputs": [
        {
          "internalType": "address",
          "name": "to",
          "type": "address"
        },
        {
          "internalType": "uint256",
          "name": "tokenId",
          "type": "uint256"
        }
      ],
      "name": "approve",
      "outputs": [],
      "stateMutability": "nonpayable",
      "type": "function"
    },
    {
      "inputs": [
        {
          "internalType": "address",
          "name": "owner",
          "type": "address"
        }
      ],
      "name": "balanceOf",
      "outputs": [
        {
          "internalType": "uint256",
          "name": "",
          "type": "uint256"
        }
      ],
      "stateMutability": "view",
      "type": "function"
    },
    {
      "inputs": [],
      "name": "count",
      "outputs": [
        {
          "internalType": "uint256",
          "name": "",
          "type": "uint256"
        }
      ],
      "stateMutability": "view",
      "type": "function"
    },
    {
      "inputs": [
        {
          "internalType": "uint256",
          "name": "tokenId",
          "type": "uint256"
        }
      ],
      "name": "getApproved",
      "outputs": [
        {
          "internalType": "address",
          "name": "",
          "type": "address"
        }
      ],
      "stateMutability": "view",
      "type": "function"
    },
    {
      "inputs": [
        {
          "internalType": "address",
          "name": "owner",
          "type": "address"
        },
        {
          "internalType": "address",
          "name": "operator",
          "type": "address"
        }
      ],
      "name": "isApprovedForAll",
      "outputs": [
        {
          "internalType": "bool",
          "name": "",
          "type": "bool"
        }
      ],
      "stateMutability": "view",
      "type": "function"
    },
    {
      "inputs": [
        {
          "internalType": "string",
          "name": "uri",
          "type": "string"
        }
      ],
      "name": "isContentOwned",
      "outputs": [
        {
          "internalType": "bool",
          "name": "",
          "type": "bool"
        }
      ],
      "stateMutability": "view",
      "type": "function"
    },
    {
      "inputs": [],
      "name": "name",
      "outputs": [
        {
          "internalType": "string",
          "name": "",
          "type": "string"
        }
      ],
      "stateMutability": "view",
      "type": "function"
    },
    {
      "inputs": [],
      "name": "owner",
      "outputs": [
        {
          "internalType": "address",
          "name": "",
          "type": "address"
        }
      ],
      "stateMutability": "view",
      "type": "function"
    },
    {
      "inputs": [
        {
          "internalType": "uint256",
          "name": "tokenId",
          "type": "uint256"
        }
      ],
      "name": "ownerOf",
      "outputs": [
        {
          "internalType": "address",
          "name": "",
          "type": "address"
        }
      ],
      "stateMutability": "view",
      "type": "function"
    },
    {
      "inputs": [
        {
          "internalType": "address",
          "name": "recipient",
          "type": "address"
        },
        {
          "internalType": "string",
          "name": "metadataURI",
          "type": "string"
        }
      ],
      "name": "payToMint",
      "outputs": [
        {
          "internalType": "uint256",
          "name": "",
          "type": "uint256"
        }
      ],
      "stateMutability": "payable",
      "type": "function"
    },
    {
      "inputs": [],
      "name": "renounceOwnership",
      "outputs": [],
      "stateMutability": "nonpayable",
      "type": "function"
    },
    {
      "inputs": [
        {
          "internalType": "address",
          "name": "to",
          "type": "address"
        },
        {
          "internalType": "string",
          "name": "uri",
          "type": "string"
        }
      ],
      "name": "safeMint",
      "outputs": [],
      "stateMutability": "nonpayable",
      "type": "function"
    },
    {
      "inputs": [
        {
          "internalType": "address",
          "name": "from",
          "type": "address"
        },
        {
          "internalType": "address",
          "name": "to",
          "type": "address"
        },
        {
          "internalType": "uint256",
          "name": "tokenId",
          "type": "uint256"
        }
      ],
      "name": "safeTransferFrom",
      "outputs": [],
      "stateMutability": "nonpayable",
      "type": "function"
    },
    {
      "inputs": [
        {
          "internalType": "address",
          "name": "from",
          "type": "address"
        },
        {
          "internalType": "address",
          "name": "to",
          "type": "address"
        },
        {
          "internalType": "uint256",
          "name": "tokenId",
          "type": "uint256"
        },
        {
          "internalType": "bytes",
          "name": "data",
          "type": "bytes"
        }
      ],
      "name": "safeTransferFrom",
      "outputs": [],
      "stateMutability": "nonpayable",
      "type": "function"
    },
    {
      "inputs": [
        {
          "internalType": "address",
          "name": "operator",
          "type": "address"
        },
        {
          "internalType": "bool",
          "name": "approved",
          "type": "bool"
        }
      ],
      "name": "setApprovalForAll",
      "outputs": [],
      "stateMutability": "nonpayable",
      "type": "function"
    },
    {
      "inputs": [
        {
          "internalType": "bytes4",
          "name": "interfaceId",
          "type": "bytes4"
        }
      ],
      "name": "supportsInterface",
      "outputs": [
        {
          "internalType": "bool",
          "name": "",
          "type": "bool"
        }
      ],
      "stateMutability": "view",
      "type": "function"
    },
    {
      "inputs": [],
      "name": "symbol",
      "outputs": [
        {
          "internalType": "string",
          "name": "",
          "type": "string"
        }
      ],
      "stateMutability": "view",
      "type": "function"
    },
    {
      "inputs": [
        {
          "internalType": "uint256",
          "name": "tokenId",
          "type": "uint256"
        }
      ],
      "name": "tokenURI",
      "outputs": [
        {
          "internalType": "string",
          "name": "",
          "type": "string"
        }
      ],
      "stateMutability": "view",
      "type": "function"
    },
    {
      "inputs": [
        {
          "internalType": "address",
          "name": "from",
          "type": "address"
        },
        {
          "internalType": "address",
          "name": "to",
          "type": "address"
        },
        {
          "internalType": "uint256",
          "name": "tokenId",
          "type": "uint256"
        }
      ],
      "name": "transferFrom",
      "outputs": [],
      "stateMutability": "nonpayable",
      "type": "function"
    },
    {
      "inputs": [
        {
          "internalType": "address",
          "name": "newOwner",
          "type": "address"
        }
      ],
      "name": "transferOwnership",
      "outputs": [],
      "stateMutability": "nonpayable",
      "type": "function"
    }
  ],
  "bytecode": "0x60806040523480156200001157600080fd5b506040518060400160405280600581526020017f4d794e46540000000000000000000000000000000000000000000000000000008152506040518060400160405280600381526020017f4d544b0000000000000000000000000000000000000000000000000000000000815250816000908051906020019062000096929190620001a6565b508060019080519060200190620000af929190620001a6565b505050620000d2620000c6620000d860201b60201c565b620000e060201b60201c565b620002bb565b600033905090565b6000600760009054906101000a900473ffffffffffffffffffffffffffffffffffffffff16905081600760006101000a81548173ffffffffffffffffffffffffffffffffffffffff021916908373ffffffffffffffffffffffffffffffffffffffff1602179055508173ffffffffffffffffffffffffffffffffffffffff168173ffffffffffffffffffffffffffffffffffffffff167f8be0079c531659141344cd1fd0a4f28419497f9722a3daafe3b4186f6b6457e060405160405180910390a35050565b828054620001b49062000285565b90600052602060002090601f016020900481019282620001d8576000855562000224565b82601f10620001f357805160ff191683800117855562000224565b8280016001018555821562000224579182015b828111156200022357825182559160200191906001019062000206565b5b50905062000233919062000237565b5090565b5b808211156200025257600081600090555060010162000238565b5090565b7f4e487b7100000000000000000000000000000000000000000000000000000000600052602260045260246000fd5b600060028204905060018216806200029e57607f821691505b60208210811415620002b557620002b462000256565b5b50919050565b6130e880620002cb6000396000f3fe60806040526004361061011f5760003560e01c8063715018a6116100a0578063b88d4fde11610064578063b88d4fde146103ec578063c87b56dd14610415578063d204c45e14610452578063e985e9c51461047b578063f2fde38b146104b85761011f565b8063715018a6146103195780638da5cb5b1461033057806395d89b411461035b5780639f1cabc614610386578063a22cb465146103c35761011f565b806323b872dd116100e757806323b872dd1461021d57806342842e0e14610246578063615fd9e21461026f5780636352211e1461029f57806370a08231146102dc5761011f565b806301ffc9a71461012457806306661abd1461016157806306fdde031461018c578063081812fc146101b7578063095ea7b3146101f4575b600080fd5b34801561013057600080fd5b5061014b60048036038101906101469190611e82565b6104e1565b6040516101589190611eca565b60405180910390f35b34801561016d57600080fd5b506101766105c3565b6040516101839190611efe565b60405180910390f35b34801561019857600080fd5b506101a16105d4565b6040516101ae9190611fb2565b60405180910390f35b3480156101c357600080fd5b506101de60048036038101906101d99190612000565b610666565b6040516101eb919061206e565b60405180910390f35b34801561020057600080fd5b5061021b600480360381019061021691906120b5565b6106ac565b005b34801561022957600080fd5b50610244600480360381019061023f91906120f5565b6107c4565b005b34801561025257600080fd5b5061026d600480360381019061026891906120f5565b610824565b005b6102896004803603810190610284919061227d565b610844565b6040516102969190611efe565b60405180910390f35b3480156102ab57600080fd5b506102c660048036038101906102c19190612000565b610970565b6040516102d3919061206e565b60405180910390f35b3480156102e857600080fd5b5061030360048036038101906102fe91906122d9565b610a22565b6040516103109190611efe565b60405180910390f35b34801561032557600080fd5b5061032e610ada565b005b34801561033c57600080fd5b50610345610aee565b604051610352919061206e565b60405180910390f35b34801561036757600080fd5b50610370610b18565b60405161037d9190611fb2565b60405180910390f35b34801561039257600080fd5b506103ad60048036038101906103a89190612306565b610baa565b6040516103ba9190611eca565b60405180910390f35b3480156103cf57600080fd5b506103ea60048036038101906103e5919061237b565b610be5565b005b3480156103f857600080fd5b50610413600480360381019061040e919061245c565b610bfb565b005b34801561042157600080fd5b5061043c60048036038101906104379190612000565b610c5d565b6040516104499190611fb2565b60405180910390f35b34801561045e57600080fd5b506104796004803603810190610474919061227d565b610c6f565b005b34801561048757600080fd5b506104a2600480360381019061049d91906124df565b610ca8565b6040516104af9190611eca565b60405180910390f35b3480156104c457600080fd5b506104df60048036038101906104da91906122d9565b610d3c565b005b60007f80ac58cd000000000000000000000000000000000000000000000000000000007bffffffffffffffffffffffffffffffffffffffffffffffffffffffff1916827bffffffffffffffffffffffffffffffffffffffffffffffffffffffff191614806105ac57507f5b5e139f000000000000000000000000000000000000000000000000000000007bffffffffffffffffffffffffffffffffffffffffffffffffffffffff1916827bffffffffffffffffffffffffffffffffffffffffffffffffffffffff1916145b806105bc57506105bb82610dc0565b5b9050919050565b60006105cf6008610e2a565b905090565b6060600080546105e39061254e565b80601f016020809104026020016040519081016040528092919081815260200182805461060f9061254e565b801561065c5780601f106106315761010080835404028352916020019161065c565b820191906000526020600020905b81548152906001019060200180831161063f57829003601f168201915b5050505050905090565b600061067182610e38565b6004600083815260200190815260200160002060009054906101000a900473ffffffffffffffffffffffffffffffffffffffff169050919050565b60006106b782610970565b90508073ffffffffffffffffffffffffffffffffffffffff168373ffffffffffffffffffffffffffffffffffffffff161415610728576040517f08c379a000000000000000000000000000000000000000000000000000000000815260040161071f906125f2565b60405180910390fd5b8073ffffffffffffffffffffffffffffffffffffffff16610747610e83565b73ffffffffffffffffffffffffffffffffffffffff161480610776575061077581610770610e83565b610ca8565b5b6107b5576040517f08c379a00000000000000000000000000000000000000000000000000000000081526004016107ac90612684565b60405180910390fd5b6107bf8383610e8b565b505050565b6107d56107cf610e83565b82610f44565b610814576040517f08c379a000000000000000000000000000000000000000000000000000000000815260040161080b90612716565b60405180910390fd5b61081f838383610fd9565b505050565b61083f83838360405180602001604052806000815250610bfb565b505050565b600060016009836040516108589190612772565b908152602001604051809103902060009054906101000a900460ff1660ff1614156108b8576040517f08c379a00000000000000000000000000000000000000000000000000000000081526004016108af906127d5565b60405180910390fd5b66b1a2bc2ec50000341015610902576040517f08c379a00000000000000000000000000000000000000000000000000000000081526004016108f990612841565b60405180910390fd5b600061090e6008610e2a565b905061091a6008611240565b600160098460405161092c9190612772565b908152602001604051809103902060006101000a81548160ff021916908360ff16021790555061095c8482611256565b6109668184611430565b8091505092915050565b6000806002600084815260200190815260200160002060009054906101000a900473ffffffffffffffffffffffffffffffffffffffff169050600073ffffffffffffffffffffffffffffffffffffffff168173ffffffffffffffffffffffffffffffffffffffff161415610a19576040517f08c379a0000000000000000000000000000000000000000000000000000000008152600401610a10906128ad565b60405180910390fd5b80915050919050565b60008073ffffffffffffffffffffffffffffffffffffffff168273ffffffffffffffffffffffffffffffffffffffff161415610a93576040517f08c379a0000000000000000000000000000000000000000000000000000000008152600401610a8a9061293f565b60405180910390fd5b600360008373ffffffffffffffffffffffffffffffffffffffff1673ffffffffffffffffffffffffffffffffffffffff168152602001908152602001600020549050919050565b610ae26114a4565b610aec6000611522565b565b6000600760009054906101000a900473ffffffffffffffffffffffffffffffffffffffff16905090565b606060018054610b279061254e565b80601f0160208091040260200160405190810160405280929190818152602001828054610b539061254e565b8015610ba05780601f10610b7557610100808354040283529160200191610ba0565b820191906000526020600020905b815481529060010190602001808311610b8357829003601f168201915b5050505050905090565b60006001600983604051610bbe9190612772565b908152602001604051809103902060009054906101000a900460ff1660ff16149050919050565b610bf7610bf0610e83565b83836115e8565b5050565b610c0c610c06610e83565b83610f44565b610c4b576040517f08c379a0000000000000000000000000000000000000000000000000000000008152600401610c4290612716565b60405180910390fd5b610c5784848484611755565b50505050565b6060610c68826117b1565b9050919050565b610c776114a4565b6000610c836008610e2a565b9050610c8f6008611240565b610c9983826118c4565b610ca38183611430565b505050565b6000600560008473ffffffffffffffffffffffffffffffffffffffff1673ffffffffffffffffffffffffffffffffffffffff16815260200190815260200160002060008373ffffffffffffffffffffffffffffffffffffffff1673ffffffffffffffffffffffffffffffffffffffff16815260200190815260200160002060009054906101000a900460ff16905092915050565b610d446114a4565b600073ffffffffffffffffffffffffffffffffffffffff168173ffffffffffffffffffffffffffffffffffffffff161415610db4576040517f08c379a0000000000000000000000000000000000000000000000000000000008152600401610dab906129d1565b60405180910390fd5b610dbd81611522565b50565b60007f01ffc9a7000000000000000000000000000000000000000000000000000000007bffffffffffffffffffffffffffffffffffffffffffffffffffffffff1916827bffffffffffffffffffffffffffffffffffffffffffffffffffffffff1916149050919050565b600081600001549050919050565b610e41816118e2565b610e80576040517f08c379a0000000000000000000000000000000000000000000000000000000008152600401610e77906128ad565b60405180910390fd5b50565b600033905090565b816004600083815260200190815260200160002060006101000a81548173ffffffffffffffffffffffffffffffffffffffff021916908373ffffffffffffffffffffffffffffffffffffffff160217905550808273ffffffffffffffffffffffffffffffffffffffff16610efe83610970565b73ffffffffffffffffffffffffffffffffffffffff167f8c5be1e5ebec7d5bd14f71427d1e84f3dd0314c0f7b2291e5b200ac8c7c3b92560405160405180910390a45050565b600080610f5083610970565b90508073ffffffffffffffffffffffffffffffffffffffff168473ffffffffffffffffffffffffffffffffffffffff161480610f925750610f918185610ca8565b5b80610fd057508373ffffffffffffffffffffffffffffffffffffffff16610fb884610666565b73ffffffffffffffffffffffffffffffffffffffff16145b91505092915050565b8273ffffffffffffffffffffffffffffffffffffffff16610ff982610970565b73ffffffffffffffffffffffffffffffffffffffff161461104f576040517f08c379a000000000000000000000000000000000000000000000000000000000815260040161104690612a63565b60405180910390fd5b600073ffffffffffffffffffffffffffffffffffffffff168273ffffffffffffffffffffffffffffffffffffffff1614156110bf576040517f08c379a00000000000000000000000000000000000000000000000000000000081526004016110b690612af5565b60405180910390fd5b6110ca83838361194e565b6110d5600082610e8b565b6001600360008573ffffffffffffffffffffffffffffffffffffffff1673ffffffffffffffffffffffffffffffffffffffff16815260200190815260200160002060008282546111259190612b44565b925050819055506001600360008473ffffffffffffffffffffffffffffffffffffffff1673ffffffffffffffffffffffffffffffffffffffff168152602001908152602001600020600082825461117c9190612b78565b92505081905550816002600083815260200190815260200160002060006101000a81548173ffffffffffffffffffffffffffffffffffffffff021916908373ffffffffffffffffffffffffffffffffffffffff160217905550808273ffffffffffffffffffffffffffffffffffffffff168473ffffffffffffffffffffffffffffffffffffffff167fddf252ad1be2c89b69c2b068fc378daa952ba7f163c4a11628f55a4df523b3ef60405160405180910390a461123b838383611953565b505050565b6001816000016000828254019250508190555050565b600073ffffffffffffffffffffffffffffffffffffffff168273ffffffffffffffffffffffffffffffffffffffff1614156112c6576040517f08c379a00000000000000000000000000000000000000000000000000000000081526004016112bd90612c1a565b60405180910390fd5b6112cf816118e2565b1561130f576040517f08c379a000000000000000000000000000000000000000000000000000000000815260040161130690612c86565b60405180910390fd5b61131b6000838361194e565b6001600360008473ffffffffffffffffffffffffffffffffffffffff1673ffffffffffffffffffffffffffffffffffffffff168152602001908152602001600020600082825461136b9190612b78565b92505081905550816002600083815260200190815260200160002060006101000a81548173ffffffffffffffffffffffffffffffffffffffff021916908373ffffffffffffffffffffffffffffffffffffffff160217905550808273ffffffffffffffffffffffffffffffffffffffff16600073ffffffffffffffffffffffffffffffffffffffff167fddf252ad1be2c89b69c2b068fc378daa952ba7f163c4a11628f55a4df523b3ef60405160405180910390a461142c60008383611953565b5050565b611439826118e2565b611478576040517f08c379a000000000000000000000000000000000000000000000000000000000815260040161146f90612d18565b60405180910390fd5b8060066000848152602001908152602001600020908051906020019061149f929190611d73565b505050565b6114ac610e83565b73ffffffffffffffffffffffffffffffffffffffff166114ca610aee565b73ffffffffffffffffffffffffffffffffffffffff1614611520576040517f08c379a000000000000000000000000000000000000000000000000000000000815260040161151790612d84565b60405180910390fd5b565b6000600760009054906101000a900473ffffffffffffffffffffffffffffffffffffffff16905081600760006101000a81548173ffffffffffffffffffffffffffffffffffffffff021916908373ffffffffffffffffffffffffffffffffffffffff1602179055508173ffffffffffffffffffffffffffffffffffffffff168173ffffffffffffffffffffffffffffffffffffffff167f8be0079c531659141344cd1fd0a4f28419497f9722a3daafe3b4186f6b6457e060405160405180910390a35050565b8173ffffffffffffffffffffffffffffffffffffffff168373ffffffffffffffffffffffffffffffffffffffff161415611657576040517f08c379a000000000000000000000000000000000000000000000000000000000815260040161164e90612df0565b60405180910390fd5b80600560008573ffffffffffffffffffffffffffffffffffffffff1673ffffffffffffffffffffffffffffffffffffffff16815260200190815260200160002060008473ffffffffffffffffffffffffffffffffffffffff1673ffffffffffffffffffffffffffffffffffffffff16815260200190815260200160002060006101000a81548160ff0219169083151502179055508173ffffffffffffffffffffffffffffffffffffffff168373ffffffffffffffffffffffffffffffffffffffff167f17307eab39ab6107e8899845ad3d59bd9653f200f220920489ca2b5937696c31836040516117489190611eca565b60405180910390a3505050565b611760848484610fd9565b61176c84848484611958565b6117ab576040517f08c379a00000000000000000000000000000000000000000000000000000000081526004016117a290612e82565b60405180910390fd5b50505050565b60606117bc82610e38565b60006006600084815260200190815260200160002080546117dc9061254e565b80601f01602080910402602001604051908101604052809291908181526020018280546118089061254e565b80156118555780601f1061182a57610100808354040283529160200191611855565b820191906000526020600020905b81548152906001019060200180831161183857829003601f168201915b505050505090506000611866611aef565b905060008151141561187c5781925050506118bf565b6000825111156118b1578082604051602001611899929190612ea2565b604051602081830303815290604052925050506118bf565b6118ba84611b2c565b925050505b919050565b6118de828260405180602001604052806000815250611b94565b5050565b60008073ffffffffffffffffffffffffffffffffffffffff166002600084815260200190815260200160002060009054906101000a900473ffffffffffffffffffffffffffffffffffffffff1673ffffffffffffffffffffffffffffffffffffffff1614159050919050565b505050565b505050565b60006119798473ffffffffffffffffffffffffffffffffffffffff16611bef565b15611ae2578373ffffffffffffffffffffffffffffffffffffffff1663150b7a026119a2610e83565b8786866040518563ffffffff1660e01b81526004016119c49493929190612f1b565b602060405180830381600087803b1580156119de57600080fd5b505af1925050508015611a0f57506040513d601f19601f82011682018060405250810190611a0c9190612f7c565b60015b611a92573d8060008114611a3f576040519150601f19603f3d011682016040523d82523d6000602084013e611a44565b606091505b50600081511415611a8a576040517f08c379a0000000000000000000000000000000000000000000000000000000008152600401611a8190612e82565b60405180910390fd5b805181602001fd5b63150b7a0260e01b7bffffffffffffffffffffffffffffffffffffffffffffffffffffffff1916817bffffffffffffffffffffffffffffffffffffffffffffffffffffffff191614915050611ae7565b600190505b949350505050565b60606040518060400160405280600781526020017f697066733a2f2f00000000000000000000000000000000000000000000000000815250905090565b6060611b3782610e38565b6000611b41611aef565b90506000815111611b615760405180602001604052806000815250611b8c565b80611b6b84611c12565b604051602001611b7c929190612ea2565b6040516020818303038152906040525b915050919050565b611b9e8383611256565b611bab6000848484611958565b611bea576040517f08c379a0000000000000000000000000000000000000000000000000000000008152600401611be190612e82565b60405180910390fd5b505050565b6000808273ffffffffffffffffffffffffffffffffffffffff163b119050919050565b60606000821415611c5a576040518060400160405280600181526020017f30000000000000000000000000000000000000000000000000000000000000008152509050611d6e565b600082905060005b60008214611c8c578080611c7590612fa9565b915050600a82611c859190613021565b9150611c62565b60008167ffffffffffffffff811115611ca857611ca7612152565b5b6040519080825280601f01601f191660200182016040528015611cda5781602001600182028036833780820191505090505b5090505b60008514611d6757600182611cf39190612b44565b9150600a85611d029190613052565b6030611d0e9190612b78565b60f81b818381518110611d2457611d23613083565b5b60200101907effffffffffffffffffffffffffffffffffffffffffffffffffffffffffffff1916908160001a905350600a85611d609190613021565b9450611cde565b8093505050505b919050565b828054611d7f9061254e565b90600052602060002090601f016020900481019282611da15760008555611de8565b82601f10611dba57805160ff1916838001178555611de8565b82800160010185558215611de8579182015b82811115611de7578251825591602001919060010190611dcc565b5b509050611df59190611df9565b5090565b5b80821115611e12576000816000905550600101611dfa565b5090565b6000604051905090565b600080fd5b600080fd5b60007fffffffff0000000000000000000000000000000000000000000000000000000082169050919050565b611e5f81611e2a565b8114611e6a57600080fd5b50565b600081359050611e7c81611e56565b92915050565b600060208284031215611e9857611e97611e20565b5b6000611ea684828501611e6d565b91505092915050565b60008115159050919050565b611ec481611eaf565b82525050565b6000602082019050611edf6000830184611ebb565b92915050565b6000819050919050565b611ef881611ee5565b82525050565b6000602082019050611f136000830184611eef565b92915050565b600081519050919050565b600082825260208201905092915050565b60005b83811015611f53578082015181840152602081019050611f38565b83811115611f62576000848401525b50505050565b6000601f19601f8301169050919050565b6000611f8482611f19565b611f8e8185611f24565b9350611f9e818560208601611f35565b611fa781611f68565b840191505092915050565b60006020820190508181036000830152611fcc8184611f79565b905092915050565b611fdd81611ee5565b8114611fe857600080fd5b50565b600081359050611ffa81611fd4565b92915050565b60006020828403121561201657612015611e20565b5b600061202484828501611feb565b91505092915050565b600073ffffffffffffffffffffffffffffffffffffffff82169050919050565b60006120588261202d565b9050919050565b6120688161204d565b82525050565b6000602082019050612083600083018461205f565b92915050565b6120928161204d565b811461209d57600080fd5b50565b6000813590506120af81612089565b92915050565b600080604083850312156120cc576120cb611e20565b5b60006120da858286016120a0565b92505060206120eb85828601611feb565b9150509250929050565b60008060006060848603121561210e5761210d611e20565b5b600061211c868287016120a0565b935050602061212d868287016120a0565b925050604061213e86828701611feb565b9150509250925092565b600080fd5b600080fd5b7f4e487b7100000000000000000000000000000000000000000000000000000000600052604160045260246000fd5b61218a82611f68565b810181811067ffffffffffffffff821117156121a9576121a8612152565b5b80604052505050565b60006121bc611e16565b90506121c88282612181565b919050565b600067ffffffffffffffff8211156121e8576121e7612152565b5b6121f182611f68565b9050602081019050919050565b82818337600083830152505050565b600061222061221b846121cd565b6121b2565b90508281526020810184848401111561223c5761223b61214d565b5b6122478482856121fe565b509392505050565b600082601f83011261226457612263612148565b5b813561227484826020860161220d565b91505092915050565b6000806040838503121561229457612293611e20565b5b60006122a2858286016120a0565b925050602083013567ffffffffffffffff8111156122c3576122c2611e25565b5b6122cf8582860161224f565b9150509250929050565b6000602082840312156122ef576122ee611e20565b5b60006122fd848285016120a0565b91505092915050565b60006020828403121561231c5761231b611e20565b5b600082013567ffffffffffffffff81111561233a57612339611e25565b5b6123468482850161224f565b91505092915050565b61235881611eaf565b811461236357600080fd5b50565b6000813590506123758161234f565b92915050565b6000806040838503121561239257612391611e20565b5b60006123a0858286016120a0565b92505060206123b185828601612366565b9150509250929050565b600067ffffffffffffffff8211156123d6576123d5612152565b5b6123df82611f68565b9050602081019050919050565b60006123ff6123fa846123bb565b6121b2565b90508281526020810184848401111561241b5761241a61214d565b5b6124268482856121fe565b509392505050565b600082601f83011261244357612442612148565b5b81356124538482602086016123ec565b91505092915050565b6000806000806080858703121561247657612475611e20565b5b6000612484878288016120a0565b9450506020612495878288016120a0565b93505060406124a687828801611feb565b925050606085013567ffffffffffffffff8111156124c7576124c6611e25565b5b6124d38782880161242e565b91505092959194509250565b600080604083850312156124f6576124f5611e20565b5b6000612504858286016120a0565b9250506020612515858286016120a0565b9150509250929050565b7f4e487b7100000000000000000000000000000000000000000000000000000000600052602260045260246000fd5b6000600282049050600182168061256657607f821691505b6020821081141561257a5761257961251f565b5b50919050565b7f4552433732313a20617070726f76616c20746f2063757272656e74206f776e6560008201527f7200000000000000000000000000000000000000000000000000000000000000602082015250565b60006125dc602183611f24565b91506125e782612580565b604082019050919050565b6000602082019050818103600083015261260b816125cf565b9050919050565b7f4552433732313a20617070726f76652063616c6c6572206973206e6f7420746f60008201527f6b656e206f776e6572206e6f7220617070726f76656420666f7220616c6c0000602082015250565b600061266e603e83611f24565b915061267982612612565b604082019050919050565b6000602082019050818103600083015261269d81612661565b9050919050565b7f4552433732313a2063616c6c6572206973206e6f7420746f6b656e206f776e6560008201527f72206e6f7220617070726f766564000000000000000000000000000000000000602082015250565b6000612700602e83611f24565b915061270b826126a4565b604082019050919050565b6000602082019050818103600083015261272f816126f3565b9050919050565b600081905092915050565b600061274c82611f19565b6127568185612736565b9350612766818560208601611f35565b80840191505092915050565b600061277e8284612741565b915081905092915050565b7f4e465420616c7265616479206d696e7465642100000000000000000000000000600082015250565b60006127bf601383611f24565b91506127ca82612789565b602082019050919050565b600060208201905081810360008301526127ee816127b2565b9050919050565b7f4e65656420746f20706179207570210000000000000000000000000000000000600082015250565b600061282b600f83611f24565b9150612836826127f5565b602082019050919050565b6000602082019050818103600083015261285a8161281e565b9050919050565b7f4552433732313a20696e76616c696420746f6b656e2049440000000000000000600082015250565b6000612897601883611f24565b91506128a282612861565b602082019050919050565b600060208201905081810360008301526128c68161288a565b9050919050565b7f4552433732313a2061646472657373207a65726f206973206e6f74206120766160008201527f6c6964206f776e65720000000000000000000000000000000000000000000000602082015250565b6000612929602983611f24565b9150612934826128cd565b604082019050919050565b600060208201905081810360008301526129588161291c565b9050919050565b7f4f776e61626c653a206e6577206f776e657220697320746865207a65726f206160008201527f6464726573730000000000000000000000000000000000000000000000000000602082015250565b60006129bb602683611f24565b91506129c68261295f565b604082019050919050565b600060208201905081810360008301526129ea816129ae565b9050919050565b7f4552433732313a207472616e736665722066726f6d20696e636f72726563742060008201527f6f776e6572000000000000000000000000000000000000000000000000000000602082015250565b6000612a4d602583611f24565b9150612a58826129f1565b604082019050919050565b60006020820190508181036000830152612a7c81612a40565b9050919050565b7f4552433732313a207472616e7366657220746f20746865207a65726f2061646460008201527f7265737300000000000000000000000000000000000000000000000000000000602082015250565b6000612adf602483611f24565b9150612aea82612a83565b604082019050919050565b60006020820190508181036000830152612b0e81612ad2565b9050919050565b7f4e487b7100000000000000000000000000000000000000000000000000000000600052601160045260246000fd5b6000612b4f82611ee5565b9150612b5a83611ee5565b925082821015612b6d57612b6c612b15565b5b828203905092915050565b6000612b8382611ee5565b9150612b8e83611ee5565b9250827fffffffffffffffffffffffffffffffffffffffffffffffffffffffffffffffff03821115612bc357612bc2612b15565b5b828201905092915050565b7f4552433732313a206d696e7420746f20746865207a65726f2061646472657373600082015250565b6000612c04602083611f24565b9150612c0f82612bce565b602082019050919050565b60006020820190508181036000830152612c3381612bf7565b9050919050565b7f4552433732313a20746f6b656e20616c7265616479206d696e74656400000000600082015250565b6000612c70601c83611f24565b9150612c7b82612c3a565b602082019050919050565b60006020820190508181036000830152612c9f81612c63565b9050919050565b7f45524337323155524953746f726167653a2055524920736574206f66206e6f6e60008201527f6578697374656e7420746f6b656e000000000000000000000000000000000000602082015250565b6000612d02602e83611f24565b9150612d0d82612ca6565b604082019050919050565b60006020820190508181036000830152612d3181612cf5565b9050919050565b7f4f776e61626c653a2063616c6c6572206973206e6f7420746865206f776e6572600082015250565b6000612d6e602083611f24565b9150612d7982612d38565b602082019050919050565b60006020820190508181036000830152612d9d81612d61565b9050919050565b7f4552433732313a20617070726f766520746f2063616c6c657200000000000000600082015250565b6000612dda601983611f24565b9150612de582612da4565b602082019050919050565b60006020820190508181036000830152612e0981612dcd565b9050919050565b7f4552433732313a207472616e7366657220746f206e6f6e20455243373231526560008201527f63656976657220696d706c656d656e7465720000000000000000000000000000602082015250565b6000612e6c603283611f24565b9150612e7782612e10565b604082019050919050565b60006020820190508181036000830152612e9b81612e5f565b9050919050565b6000612eae8285612741565b9150612eba8284612741565b91508190509392505050565b600081519050919050565b600082825260208201905092915050565b6000612eed82612ec6565b612ef78185612ed1565b9350612f07818560208601611f35565b612f1081611f68565b840191505092915050565b6000608082019050612f30600083018761205f565b612f3d602083018661205f565b612f4a6040830185611eef565b8181036060830152612f5c8184612ee2565b905095945050505050565b600081519050612f7681611e56565b92915050565b600060208284031215612f9257612f91611e20565b5b6000612fa084828501612f67565b91505092915050565b6000612fb482611ee5565b91507fffffffffffffffffffffffffffffffffffffffffffffffffffffffffffffffff821415612fe757612fe6612b15565b5b600182019050919050565b7f4e487b7100000000000000000000000000000000000000000000000000000000600052601260045260246000fd5b600061302c82611ee5565b915061303783611ee5565b92508261304757613046612ff2565b5b828204905092915050565b600061305d82611ee5565b915061306883611ee5565b92508261307857613077612ff2565b5b828206905092915050565b7f4e487b7100000000000000000000000000000000000000000000000000000000600052603260045260246000fdfea26469706673582212208b99841c97ae98876804562bef38233c99a4306e45c2acb163fce89477c2229764736f6c63430008090033",
  "linkReferences": {},
  "deployedLinkReferences": {}
}