{
  "_format": "hh-sol-artifact-1",
  "contractName": "MyNFT",
  "sourceName": "contracts/MyNFT.sol",
  "abi": [
    {
      "inputs": [],
      "stateMutability": "nonpayable",
      "type": "constructor"
    },
    {
      "anonymous": false,
      "inputs": [
        {
          "indexed": true,
          "internalType": "address",
          "name": "owner",
          "type": "address"
        },
        {
          "indexed": true,
          "internalType": "address",
          "name": "approved",
          "type": "address"
        },
        {
          "indexed": true,
          "internalType": "uint256",
          "name": "tokenId",
          "type": "uint256"
        }
      ],
      "name": "Approval",
      "type": "event"
    },
    {
      "anonymous": false,
      "inputs": [
        {
          "indexed": true,
          "internalType": "address",
          "name": "owner",
          "type": "address"
        },
        {
          "indexed": true,
          "internalType": "address",
          "name": "operator",
          "type": "address"
        },
        {
          "indexed": false,
          "internalType": "bool",
          "name": "approved",
          "type": "bool"
        }
      ],
      "name": "ApprovalForAll",
      "type": "event"
    },
    {
      "anonymous": false,
      "inputs": [
        {
          "indexed": true,
          "internalType": "address",
          "name": "previousOwner",
          "type": "address"
        },
        {
          "indexed": true,
          "internalType": "address",
          "name": "newOwner",
          "type": "address"
        }
      ],
      "name": "OwnershipTransferred",
      "type": "event"
    },
    {
      "anonymous": false,
      "inputs": [
        {
          "indexed": true,
          "internalType": "address",
          "name": "from",
          "type": "address"
        },
        {
          "indexed": true,
          "internalType": "address",
          "name": "to",
          "type": "address"
        },
        {
          "indexed": true,
          "internalType": "uint256",
          "name": "tokenId",
          "type": "uint256"
        }
      ],
      "name": "Transfer",
      "type": "event"
    },
    {
      "inputs": [
        {
          "internalType": "address",
          "name": "to",
          "type": "address"
        },
        {
          "internalType": "uint256",
          "name": "tokenId",
          "type": "uint256"
        }
      ],
      "name": "approve",
      "outputs": [],
      "stateMutability": "nonpayable",
      "type": "function"
    },
    {
      "inputs": [
        {
          "internalType": "address",
          "name": "owner",
          "type": "address"
        }
      ],
      "name": "balanceOf",
      "outputs": [
        {
          "internalType": "uint256",
          "name": "",
          "type": "uint256"
        }
      ],
      "stateMutability": "view",
      "type": "function"
    },
    {
      "inputs": [],
      "name": "count",
      "outputs": [
        {
          "internalType": "uint256",
          "name": "",
          "type": "uint256"
        }
      ],
      "stateMutability": "view",
      "type": "function"
    },
    {
      "inputs": [
        {
          "internalType": "uint256",
          "name": "tokenId",
          "type": "uint256"
        }
      ],
      "name": "getApproved",
      "outputs": [
        {
          "internalType": "address",
          "name": "",
          "type": "address"
        }
      ],
      "stateMutability": "view",
      "type": "function"
    },
    {
      "inputs": [
        {
          "internalType": "address",
          "name": "recipient",
          "type": "address"
        },
        {
          "internalType": "string",
          "name": "metadataURI",
          "type": "string"
        }
      ],
      "name": "giftMint",
      "outputs": [
        {
          "internalType": "uint256",
          "name": "",
          "type": "uint256"
        }
      ],
      "stateMutability": "payable",
      "type": "function"
    },
    {
      "inputs": [
        {
          "internalType": "address",
          "name": "owner",
          "type": "address"
        },
        {
          "internalType": "address",
          "name": "operator",
          "type": "address"
        }
      ],
      "name": "isApprovedForAll",
      "outputs": [
        {
          "internalType": "bool",
          "name": "",
          "type": "bool"
        }
      ],
      "stateMutability": "view",
      "type": "function"
    },
    {
      "inputs": [
        {
          "internalType": "string",
          "name": "uri",
          "type": "string"
        }
      ],
      "name": "isContentOwned",
      "outputs": [
        {
          "internalType": "bool",
          "name": "",
          "type": "bool"
        }
      ],
      "stateMutability": "view",
      "type": "function"
    },
    {
      "inputs": [],
      "name": "name",
      "outputs": [
        {
          "internalType": "string",
          "name": "",
          "type": "string"
        }
      ],
      "stateMutability": "view",
      "type": "function"
    },
    {
      "inputs": [],
      "name": "owner",
      "outputs": [
        {
          "internalType": "address",
          "name": "",
          "type": "address"
        }
      ],
      "stateMutability": "view",
      "type": "function"
    },
    {
      "inputs": [
        {
          "internalType": "uint256",
          "name": "tokenId",
          "type": "uint256"
        }
      ],
      "name": "ownerOf",
      "outputs": [
        {
          "internalType": "address",
          "name": "",
          "type": "address"
        }
      ],
      "stateMutability": "view",
      "type": "function"
    },
    {
      "inputs": [
        {
          "internalType": "address",
          "name": "recipient",
          "type": "address"
        },
        {
          "internalType": "string",
          "name": "metadataURI",
          "type": "string"
        }
      ],
      "name": "payToMint",
      "outputs": [
        {
          "internalType": "uint256",
          "name": "",
          "type": "uint256"
        }
      ],
      "stateMutability": "payable",
      "type": "function"
    },
    {
      "inputs": [],
      "name": "renounceOwnership",
      "outputs": [],
      "stateMutability": "nonpayable",
      "type": "function"
    },
    {
      "inputs": [
        {
          "internalType": "address",
          "name": "to",
          "type": "address"
        },
        {
          "internalType": "string",
          "name": "uri",
          "type": "string"
        }
      ],
      "name": "safeMint",
      "outputs": [],
      "stateMutability": "nonpayable",
      "type": "function"
    },
    {
      "inputs": [
        {
          "internalType": "address",
          "name": "from",
          "type": "address"
        },
        {
          "internalType": "address",
          "name": "to",
          "type": "address"
        },
        {
          "internalType": "uint256",
          "name": "tokenId",
          "type": "uint256"
        }
      ],
      "name": "safeTransferFrom",
      "outputs": [],
      "stateMutability": "nonpayable",
      "type": "function"
    },
    {
      "inputs": [
        {
          "internalType": "address",
          "name": "from",
          "type": "address"
        },
        {
          "internalType": "address",
          "name": "to",
          "type": "address"
        },
        {
          "internalType": "uint256",
          "name": "tokenId",
          "type": "uint256"
        },
        {
          "internalType": "bytes",
          "name": "data",
          "type": "bytes"
        }
      ],
      "name": "safeTransferFrom",
      "outputs": [],
      "stateMutability": "nonpayable",
      "type": "function"
    },
    {
      "inputs": [
        {
          "internalType": "address",
          "name": "operator",
          "type": "address"
        },
        {
          "internalType": "bool",
          "name": "approved",
          "type": "bool"
        }
      ],
      "name": "setApprovalForAll",
      "outputs": [],
      "stateMutability": "nonpayable",
      "type": "function"
    },
    {
      "inputs": [
        {
          "internalType": "bytes4",
          "name": "interfaceId",
          "type": "bytes4"
        }
      ],
      "name": "supportsInterface",
      "outputs": [
        {
          "internalType": "bool",
          "name": "",
          "type": "bool"
        }
      ],
      "stateMutability": "view",
      "type": "function"
    },
    {
      "inputs": [],
      "name": "symbol",
      "outputs": [
        {
          "internalType": "string",
          "name": "",
          "type": "string"
        }
      ],
      "stateMutability": "view",
      "type": "function"
    },
    {
      "inputs": [
        {
          "internalType": "uint256",
          "name": "tokenId",
          "type": "uint256"
        }
      ],
      "name": "tokenURI",
      "outputs": [
        {
          "internalType": "string",
          "name": "",
          "type": "string"
        }
      ],
      "stateMutability": "view",
      "type": "function"
    },
    {
      "inputs": [
        {
          "internalType": "address",
          "name": "from",
          "type": "address"
        },
        {
          "internalType": "address",
          "name": "to",
          "type": "address"
        },
        {
          "internalType": "uint256",
          "name": "tokenId",
          "type": "uint256"
        }
      ],
      "name": "transferFrom",
      "outputs": [],
      "stateMutability": "nonpayable",
      "type": "function"
    },
    {
      "inputs": [
        {
          "internalType": "address",
          "name": "newOwner",
          "type": "address"
        }
      ],
      "name": "transferOwnership",
      "outputs": [],
      "stateMutability": "nonpayable",
      "type": "function"
    },
    {
      "inputs": [],
      "name": "withdraw",
      "outputs": [],
      "stateMutability": "nonpayable",
      "type": "function"
    },
    {
      "inputs": [],
      "name": "withdrawWallet",
      "outputs": [
        {
          "internalType": "address payable",
          "name": "",
          "type": "address"
        }
      ],
      "stateMutability": "view",
      "type": "function"
    }
  ],
  "bytecode": "0x60806040523480156200001157600080fd5b506040518060400160405280600581526020017f4d794e46540000000000000000000000000000000000000000000000000000008152506040518060400160405280600381526020017f4d544b0000000000000000000000000000000000000000000000000000000000815250816000908051906020019062000096929190620001a6565b508060019080519060200190620000af929190620001a6565b505050620000d2620000c6620000d860201b60201c565b620000e060201b60201c565b620002bb565b600033905090565b6000600760009054906101000a900473ffffffffffffffffffffffffffffffffffffffff16905081600760006101000a81548173ffffffffffffffffffffffffffffffffffffffff021916908373ffffffffffffffffffffffffffffffffffffffff1602179055508173ffffffffffffffffffffffffffffffffffffffff168173ffffffffffffffffffffffffffffffffffffffff167f8be0079c531659141344cd1fd0a4f28419497f9722a3daafe3b4186f6b6457e060405160405180910390a35050565b828054620001b49062000285565b90600052602060002090601f016020900481019282620001d8576000855562000224565b82601f10620001f357805160ff191683800117855562000224565b8280016001018555821562000224579182015b828111156200022357825182559160200191906001019062000206565b5b50905062000233919062000237565b5090565b5b808211156200025257600081600090555060010162000238565b5090565b7f4e487b7100000000000000000000000000000000000000000000000000000000600052602260045260246000fd5b600060028204905060018216806200029e57607f821691505b60208210811415620002b557620002b462000256565b5b50919050565b61344a80620002cb6000396000f3fe6080604052600436106101405760003560e01c8063715018a6116100b6578063b88d4fde1161006f578063b88d4fde1461044f578063c87b56dd14610478578063d204c45e146104b5578063dde41332146104de578063e985e9c51461050e578063f2fde38b1461054b57610140565b8063715018a61461035157806385d178f4146103685780638da5cb5b1461039357806395d89b41146103be5780639f1cabc6146103e9578063a22cb4651461042657610140565b806323b872dd1161010857806323b872dd1461023e5780633ccfd60b1461026757806342842e0e1461027e578063615fd9e2146102a75780636352211e146102d757806370a082311461031457610140565b806301ffc9a71461014557806306661abd1461018257806306fdde03146101ad578063081812fc146101d8578063095ea7b314610215575b600080fd5b34801561015157600080fd5b5061016c600480360381019061016791906120f6565b610574565b604051610179919061213e565b60405180910390f35b34801561018e57600080fd5b50610197610656565b6040516101a49190612172565b60405180910390f35b3480156101b957600080fd5b506101c2610667565b6040516101cf9190612226565b60405180910390f35b3480156101e457600080fd5b506101ff60048036038101906101fa9190612274565b6106f9565b60405161020c91906122e2565b60405180910390f35b34801561022157600080fd5b5061023c60048036038101906102379190612329565b61073f565b005b34801561024a57600080fd5b5061026560048036038101906102609190612369565b610857565b005b34801561027357600080fd5b5061027c6108b7565b005b34801561028a57600080fd5b506102a560048036038101906102a09190612369565b610990565b005b6102c160048036038101906102bc91906124f1565b6109b0565b6040516102ce9190612172565b60405180910390f35b3480156102e357600080fd5b506102fe60048036038101906102f99190612274565b610adc565b60405161030b91906122e2565b60405180910390f35b34801561032057600080fd5b5061033b6004803603810190610336919061254d565b610b8e565b6040516103489190612172565b60405180910390f35b34801561035d57600080fd5b50610366610c46565b005b34801561037457600080fd5b5061037d610c5a565b60405161038a919061259b565b60405180910390f35b34801561039f57600080fd5b506103a8610c80565b6040516103b591906122e2565b60405180910390f35b3480156103ca57600080fd5b506103d3610caa565b6040516103e09190612226565b60405180910390f35b3480156103f557600080fd5b50610410600480360381019061040b91906125b6565b610d3c565b60405161041d919061213e565b60405180910390f35b34801561043257600080fd5b5061044d6004803603810190610448919061262b565b610d77565b005b34801561045b57600080fd5b506104766004803603810190610471919061270c565b610d8d565b005b34801561048457600080fd5b5061049f600480360381019061049a9190612274565b610def565b6040516104ac9190612226565b60405180910390f35b3480156104c157600080fd5b506104dc60048036038101906104d791906124f1565b610e01565b005b6104f860048036038101906104f391906124f1565b610e3a565b6040516105059190612172565b60405180910390f35b34801561051a57600080fd5b506105356004803603810190610530919061278f565b610f1c565b604051610542919061213e565b60405180910390f35b34801561055757600080fd5b50610572600480360381019061056d919061254d565b610fb0565b005b60007f80ac58cd000000000000000000000000000000000000000000000000000000007bffffffffffffffffffffffffffffffffffffffffffffffffffffffff1916827bffffffffffffffffffffffffffffffffffffffffffffffffffffffff1916148061063f57507f5b5e139f000000000000000000000000000000000000000000000000000000007bffffffffffffffffffffffffffffffffffffffffffffffffffffffff1916827bffffffffffffffffffffffffffffffffffffffffffffffffffffffff1916145b8061064f575061064e82611034565b5b9050919050565b6000610662600a61109e565b905090565b606060008054610676906127fe565b80601f01602080910402602001604051908101604052809291908181526020018280546106a2906127fe565b80156106ef5780601f106106c4576101008083540402835291602001916106ef565b820191906000526020600020905b8154815290600101906020018083116106d257829003601f168201915b5050505050905090565b6000610704826110ac565b6004600083815260200190815260200160002060009054906101000a900473ffffffffffffffffffffffffffffffffffffffff169050919050565b600061074a82610adc565b90508073ffffffffffffffffffffffffffffffffffffffff168373ffffffffffffffffffffffffffffffffffffffff1614156107bb576040517f08c379a00000000000000000000000000000000000000000000000000000000081526004016107b2906128a2565b60405180910390fd5b8073ffffffffffffffffffffffffffffffffffffffff166107da6110f7565b73ffffffffffffffffffffffffffffffffffffffff1614806108095750610808816108036110f7565b610f1c565b5b610848576040517f08c379a000000000000000000000000000000000000000000000000000000000815260040161083f90612934565b60405180910390fd5b61085283836110ff565b505050565b6108686108626110f7565b826111b8565b6108a7576040517f08c379a000000000000000000000000000000000000000000000000000000000815260040161089e906129c6565b60405180910390fd5b6108b283838361124d565b505050565b6108bf6114b4565b6000600860009054906101000a900473ffffffffffffffffffffffffffffffffffffffff1673ffffffffffffffffffffffffffffffffffffffff164760405161090790612a17565b60006040518083038185875af1925050503d8060008114610944576040519150601f19603f3d011682016040523d82523d6000602084013e610949565b606091505b505090508061098d576040517f08c379a000000000000000000000000000000000000000000000000000000000815260040161098490612a78565b60405180910390fd5b50565b6109ab83838360405180602001604052806000815250610d8d565b505050565b600060016009836040516109c49190612ad4565b908152602001604051809103902060009054906101000a900460ff1660ff161415610a24576040517f08c379a0000000000000000000000000000000000000000000000000000000008152600401610a1b90612b37565b60405180910390fd5b662386f26fc10000341015610a6e576040517f08c379a0000000000000000000000000000000000000000000000000000000008152600401610a6590612ba3565b60405180910390fd5b6000610a7a600a61109e565b9050610a86600a611532565b6001600984604051610a989190612ad4565b908152602001604051809103902060006101000a81548160ff021916908360ff160217905550610ac88482611548565b610ad28184611722565b8091505092915050565b6000806002600084815260200190815260200160002060009054906101000a900473ffffffffffffffffffffffffffffffffffffffff169050600073ffffffffffffffffffffffffffffffffffffffff168173ffffffffffffffffffffffffffffffffffffffff161415610b85576040517f08c379a0000000000000000000000000000000000000000000000000000000008152600401610b7c90612c0f565b60405180910390fd5b80915050919050565b60008073ffffffffffffffffffffffffffffffffffffffff168273ffffffffffffffffffffffffffffffffffffffff161415610bff576040517f08c379a0000000000000000000000000000000000000000000000000000000008152600401610bf690612ca1565b60405180910390fd5b600360008373ffffffffffffffffffffffffffffffffffffffff1673ffffffffffffffffffffffffffffffffffffffff168152602001908152602001600020549050919050565b610c4e6114b4565b610c586000611796565b565b600860009054906101000a900473ffffffffffffffffffffffffffffffffffffffff1681565b6000600760009054906101000a900473ffffffffffffffffffffffffffffffffffffffff16905090565b606060018054610cb9906127fe565b80601f0160208091040260200160405190810160405280929190818152602001828054610ce5906127fe565b8015610d325780601f10610d0757610100808354040283529160200191610d32565b820191906000526020600020905b815481529060010190602001808311610d1557829003601f168201915b5050505050905090565b60006001600983604051610d509190612ad4565b908152602001604051809103902060009054906101000a900460ff1660ff16149050919050565b610d89610d826110f7565b838361185c565b5050565b610d9e610d986110f7565b836111b8565b610ddd576040517f08c379a0000000000000000000000000000000000000000000000000000000008152600401610dd4906129c6565b60405180910390fd5b610de9848484846119c9565b50505050565b6060610dfa82611a25565b9050919050565b610e096114b4565b6000610e15600a61109e565b9050610e21600a611532565b610e2b8382611b38565b610e358183611722565b505050565b60006001600983604051610e4e9190612ad4565b908152602001604051809103902060009054906101000a900460ff1660ff161415610eae576040517f08c379a0000000000000000000000000000000000000000000000000000000008152600401610ea590612b37565b60405180910390fd5b6000610eba600a61109e565b9050610ec6600a611532565b6001600984604051610ed89190612ad4565b908152602001604051809103902060006101000a81548160ff021916908360ff160217905550610f088482611548565b610f128184611722565b8091505092915050565b6000600560008473ffffffffffffffffffffffffffffffffffffffff1673ffffffffffffffffffffffffffffffffffffffff16815260200190815260200160002060008373ffffffffffffffffffffffffffffffffffffffff1673ffffffffffffffffffffffffffffffffffffffff16815260200190815260200160002060009054906101000a900460ff16905092915050565b610fb86114b4565b600073ffffffffffffffffffffffffffffffffffffffff168173ffffffffffffffffffffffffffffffffffffffff161415611028576040517f08c379a000000000000000000000000000000000000000000000000000000000815260040161101f90612d33565b60405180910390fd5b61103181611796565b50565b60007f01ffc9a7000000000000000000000000000000000000000000000000000000007bffffffffffffffffffffffffffffffffffffffffffffffffffffffff1916827bffffffffffffffffffffffffffffffffffffffffffffffffffffffff1916149050919050565b600081600001549050919050565b6110b581611b56565b6110f4576040517f08c379a00000000000000000000000000000000000000000000000000000000081526004016110eb90612c0f565b60405180910390fd5b50565b600033905090565b816004600083815260200190815260200160002060006101000a81548173ffffffffffffffffffffffffffffffffffffffff021916908373ffffffffffffffffffffffffffffffffffffffff160217905550808273ffffffffffffffffffffffffffffffffffffffff1661117283610adc565b73ffffffffffffffffffffffffffffffffffffffff167f8c5be1e5ebec7d5bd14f71427d1e84f3dd0314c0f7b2291e5b200ac8c7c3b92560405160405180910390a45050565b6000806111c483610adc565b90508073ffffffffffffffffffffffffffffffffffffffff168473ffffffffffffffffffffffffffffffffffffffff16148061120657506112058185610f1c565b5b8061124457508373ffffffffffffffffffffffffffffffffffffffff1661122c846106f9565b73ffffffffffffffffffffffffffffffffffffffff16145b91505092915050565b8273ffffffffffffffffffffffffffffffffffffffff1661126d82610adc565b73ffffffffffffffffffffffffffffffffffffffff16146112c3576040517f08c379a00000000000000000000000000000000000000000000000000000000081526004016112ba90612dc5565b60405180910390fd5b600073ffffffffffffffffffffffffffffffffffffffff168273ffffffffffffffffffffffffffffffffffffffff161415611333576040517f08c379a000000000000000000000000000000000000000000000000000000000815260040161132a90612e57565b60405180910390fd5b61133e838383611bc2565b6113496000826110ff565b6001600360008573ffffffffffffffffffffffffffffffffffffffff1673ffffffffffffffffffffffffffffffffffffffff16815260200190815260200160002060008282546113999190612ea6565b925050819055506001600360008473ffffffffffffffffffffffffffffffffffffffff1673ffffffffffffffffffffffffffffffffffffffff16815260200190815260200160002060008282546113f09190612eda565b92505081905550816002600083815260200190815260200160002060006101000a81548173ffffffffffffffffffffffffffffffffffffffff021916908373ffffffffffffffffffffffffffffffffffffffff160217905550808273ffffffffffffffffffffffffffffffffffffffff168473ffffffffffffffffffffffffffffffffffffffff167fddf252ad1be2c89b69c2b068fc378daa952ba7f163c4a11628f55a4df523b3ef60405160405180910390a46114af838383611bc7565b505050565b6114bc6110f7565b73ffffffffffffffffffffffffffffffffffffffff166114da610c80565b73ffffffffffffffffffffffffffffffffffffffff1614611530576040517f08c379a000000000000000000000000000000000000000000000000000000000815260040161152790612f7c565b60405180910390fd5b565b6001816000016000828254019250508190555050565b600073ffffffffffffffffffffffffffffffffffffffff168273ffffffffffffffffffffffffffffffffffffffff1614156115b8576040517f08c379a00000000000000000000000000000000000000000000000000000000081526004016115af90612fe8565b60405180910390fd5b6115c181611b56565b15611601576040517f08c379a00000000000000000000000000000000000000000000000000000000081526004016115f890613054565b60405180910390fd5b61160d60008383611bc2565b6001600360008473ffffffffffffffffffffffffffffffffffffffff1673ffffffffffffffffffffffffffffffffffffffff168152602001908152602001600020600082825461165d9190612eda565b92505081905550816002600083815260200190815260200160002060006101000a81548173ffffffffffffffffffffffffffffffffffffffff021916908373ffffffffffffffffffffffffffffffffffffffff160217905550808273ffffffffffffffffffffffffffffffffffffffff16600073ffffffffffffffffffffffffffffffffffffffff167fddf252ad1be2c89b69c2b068fc378daa952ba7f163c4a11628f55a4df523b3ef60405160405180910390a461171e60008383611bc7565b5050565b61172b82611b56565b61176a576040517f08c379a0000000000000000000000000000000000000000000000000000000008152600401611761906130e6565b60405180910390fd5b80600660008481526020019081526020016000209080519060200190611791929190611fe7565b505050565b6000600760009054906101000a900473ffffffffffffffffffffffffffffffffffffffff16905081600760006101000a81548173ffffffffffffffffffffffffffffffffffffffff021916908373ffffffffffffffffffffffffffffffffffffffff1602179055508173ffffffffffffffffffffffffffffffffffffffff168173ffffffffffffffffffffffffffffffffffffffff167f8be0079c531659141344cd1fd0a4f28419497f9722a3daafe3b4186f6b6457e060405160405180910390a35050565b8173ffffffffffffffffffffffffffffffffffffffff168373ffffffffffffffffffffffffffffffffffffffff1614156118cb576040517f08c379a00000000000000000000000000000000000000000000000000000000081526004016118c290613152565b60405180910390fd5b80600560008573ffffffffffffffffffffffffffffffffffffffff1673ffffffffffffffffffffffffffffffffffffffff16815260200190815260200160002060008473ffffffffffffffffffffffffffffffffffffffff1673ffffffffffffffffffffffffffffffffffffffff16815260200190815260200160002060006101000a81548160ff0219169083151502179055508173ffffffffffffffffffffffffffffffffffffffff168373ffffffffffffffffffffffffffffffffffffffff167f17307eab39ab6107e8899845ad3d59bd9653f200f220920489ca2b5937696c31836040516119bc919061213e565b60405180910390a3505050565b6119d484848461124d565b6119e084848484611bcc565b611a1f576040517f08c379a0000000000000000000000000000000000000000000000000000000008152600401611a16906131e4565b60405180910390fd5b50505050565b6060611a30826110ac565b6000600660008481526020019081526020016000208054611a50906127fe565b80601f0160208091040260200160405190810160405280929190818152602001828054611a7c906127fe565b8015611ac95780601f10611a9e57610100808354040283529160200191611ac9565b820191906000526020600020905b815481529060010190602001808311611aac57829003601f168201915b505050505090506000611ada611d63565b9050600081511415611af0578192505050611b33565b600082511115611b25578082604051602001611b0d929190613204565b60405160208183030381529060405292505050611b33565b611b2e84611da0565b925050505b919050565b611b52828260405180602001604052806000815250611e08565b5050565b60008073ffffffffffffffffffffffffffffffffffffffff166002600084815260200190815260200160002060009054906101000a900473ffffffffffffffffffffffffffffffffffffffff1673ffffffffffffffffffffffffffffffffffffffff1614159050919050565b505050565b505050565b6000611bed8473ffffffffffffffffffffffffffffffffffffffff16611e63565b15611d56578373ffffffffffffffffffffffffffffffffffffffff1663150b7a02611c166110f7565b8786866040518563ffffffff1660e01b8152600401611c38949392919061327d565b602060405180830381600087803b158015611c5257600080fd5b505af1925050508015611c8357506040513d601f19601f82011682018060405250810190611c8091906132de565b60015b611d06573d8060008114611cb3576040519150601f19603f3d011682016040523d82523d6000602084013e611cb8565b606091505b50600081511415611cfe576040517f08c379a0000000000000000000000000000000000000000000000000000000008152600401611cf5906131e4565b60405180910390fd5b805181602001fd5b63150b7a0260e01b7bffffffffffffffffffffffffffffffffffffffffffffffffffffffff1916817bffffffffffffffffffffffffffffffffffffffffffffffffffffffff191614915050611d5b565b600190505b949350505050565b60606040518060400160405280600781526020017f697066733a2f2f00000000000000000000000000000000000000000000000000815250905090565b6060611dab826110ac565b6000611db5611d63565b90506000815111611dd55760405180602001604052806000815250611e00565b80611ddf84611e86565b604051602001611df0929190613204565b6040516020818303038152906040525b915050919050565b611e128383611548565b611e1f6000848484611bcc565b611e5e576040517f08c379a0000000000000000000000000000000000000000000000000000000008152600401611e55906131e4565b60405180910390fd5b505050565b6000808273ffffffffffffffffffffffffffffffffffffffff163b119050919050565b60606000821415611ece576040518060400160405280600181526020017f30000000000000000000000000000000000000000000000000000000000000008152509050611fe2565b600082905060005b60008214611f00578080611ee99061330b565b915050600a82611ef99190613383565b9150611ed6565b60008167ffffffffffffffff811115611f1c57611f1b6123c6565b5b6040519080825280601f01601f191660200182016040528015611f4e5781602001600182028036833780820191505090505b5090505b60008514611fdb57600182611f679190612ea6565b9150600a85611f7691906133b4565b6030611f829190612eda565b60f81b818381518110611f9857611f976133e5565b5b60200101907effffffffffffffffffffffffffffffffffffffffffffffffffffffffffffff1916908160001a905350600a85611fd49190613383565b9450611f52565b8093505050505b919050565b828054611ff3906127fe565b90600052602060002090601f016020900481019282612015576000855561205c565b82601f1061202e57805160ff191683800117855561205c565b8280016001018555821561205c579182015b8281111561205b578251825591602001919060010190612040565b5b509050612069919061206d565b5090565b5b8082111561208657600081600090555060010161206e565b5090565b6000604051905090565b600080fd5b600080fd5b60007fffffffff0000000000000000000000000000000000000000000000000000000082169050919050565b6120d38161209e565b81146120de57600080fd5b50565b6000813590506120f0816120ca565b92915050565b60006020828403121561210c5761210b612094565b5b600061211a848285016120e1565b91505092915050565b60008115159050919050565b61213881612123565b82525050565b6000602082019050612153600083018461212f565b92915050565b6000819050919050565b61216c81612159565b82525050565b60006020820190506121876000830184612163565b92915050565b600081519050919050565b600082825260208201905092915050565b60005b838110156121c75780820151818401526020810190506121ac565b838111156121d6576000848401525b50505050565b6000601f19601f8301169050919050565b60006121f88261218d565b6122028185612198565b93506122128185602086016121a9565b61221b816121dc565b840191505092915050565b6000602082019050818103600083015261224081846121ed565b905092915050565b61225181612159565b811461225c57600080fd5b50565b60008135905061226e81612248565b92915050565b60006020828403121561228a57612289612094565b5b60006122988482850161225f565b91505092915050565b600073ffffffffffffffffffffffffffffffffffffffff82169050919050565b60006122cc826122a1565b9050919050565b6122dc816122c1565b82525050565b60006020820190506122f760008301846122d3565b92915050565b612306816122c1565b811461231157600080fd5b50565b600081359050612323816122fd565b92915050565b600080604083850312156123405761233f612094565b5b600061234e85828601612314565b925050602061235f8582860161225f565b9150509250929050565b60008060006060848603121561238257612381612094565b5b600061239086828701612314565b93505060206123a186828701612314565b92505060406123b28682870161225f565b9150509250925092565b600080fd5b600080fd5b7f4e487b7100000000000000000000000000000000000000000000000000000000600052604160045260246000fd5b6123fe826121dc565b810181811067ffffffffffffffff8211171561241d5761241c6123c6565b5b80604052505050565b600061243061208a565b905061243c82826123f5565b919050565b600067ffffffffffffffff82111561245c5761245b6123c6565b5b612465826121dc565b9050602081019050919050565b82818337600083830152505050565b600061249461248f84612441565b612426565b9050828152602081018484840111156124b0576124af6123c1565b5b6124bb848285612472565b509392505050565b600082601f8301126124d8576124d76123bc565b5b81356124e8848260208601612481565b91505092915050565b6000806040838503121561250857612507612094565b5b600061251685828601612314565b925050602083013567ffffffffffffffff81111561253757612536612099565b5b612543858286016124c3565b9150509250929050565b60006020828403121561256357612562612094565b5b600061257184828501612314565b91505092915050565b6000612585826122a1565b9050919050565b6125958161257a565b82525050565b60006020820190506125b0600083018461258c565b92915050565b6000602082840312156125cc576125cb612094565b5b600082013567ffffffffffffffff8111156125ea576125e9612099565b5b6125f6848285016124c3565b91505092915050565b61260881612123565b811461261357600080fd5b50565b600081359050612625816125ff565b92915050565b6000806040838503121561264257612641612094565b5b600061265085828601612314565b925050602061266185828601612616565b9150509250929050565b600067ffffffffffffffff821115612686576126856123c6565b5b61268f826121dc565b9050602081019050919050565b60006126af6126aa8461266b565b612426565b9050828152602081018484840111156126cb576126ca6123c1565b5b6126d6848285612472565b509392505050565b600082601f8301126126f3576126f26123bc565b5b813561270384826020860161269c565b91505092915050565b6000806000806080858703121561272657612725612094565b5b600061273487828801612314565b945050602061274587828801612314565b93505060406127568782880161225f565b925050606085013567ffffffffffffffff81111561277757612776612099565b5b612783878288016126de565b91505092959194509250565b600080604083850312156127a6576127a5612094565b5b60006127b485828601612314565b92505060206127c585828601612314565b9150509250929050565b7f4e487b7100000000000000000000000000000000000000000000000000000000600052602260045260246000fd5b6000600282049050600182168061281657607f821691505b6020821081141561282a576128296127cf565b5b50919050565b7f4552433732313a20617070726f76616c20746f2063757272656e74206f776e6560008201527f7200000000000000000000000000000000000000000000000000000000000000602082015250565b600061288c602183612198565b915061289782612830565b604082019050919050565b600060208201905081810360008301526128bb8161287f565b9050919050565b7f4552433732313a20617070726f76652063616c6c6572206973206e6f7420746f60008201527f6b656e206f776e6572206e6f7220617070726f76656420666f7220616c6c0000602082015250565b600061291e603e83612198565b9150612929826128c2565b604082019050919050565b6000602082019050818103600083015261294d81612911565b9050919050565b7f4552433732313a2063616c6c6572206973206e6f7420746f6b656e206f776e6560008201527f72206e6f7220617070726f766564000000000000000000000000000000000000602082015250565b60006129b0602e83612198565b91506129bb82612954565b604082019050919050565b600060208201905081810360008301526129df816129a3565b9050919050565b600081905092915050565b50565b6000612a016000836129e6565b9150612a0c826129f1565b600082019050919050565b6000612a22826129f4565b9150819050919050565b7f7769746864726177206661696c65640000000000000000000000000000000000600082015250565b6000612a62600f83612198565b9150612a6d82612a2c565b602082019050919050565b60006020820190508181036000830152612a9181612a55565b9050919050565b600081905092915050565b6000612aae8261218d565b612ab88185612a98565b9350612ac88185602086016121a9565b80840191505092915050565b6000612ae08284612aa3565b915081905092915050565b7f4e465420616c7265616479206d696e7465642100000000000000000000000000600082015250565b6000612b21601383612198565b9150612b2c82612aeb565b602082019050919050565b60006020820190508181036000830152612b5081612b14565b9050919050565b7f4e65656420746f20706179207570210000000000000000000000000000000000600082015250565b6000612b8d600f83612198565b9150612b9882612b57565b602082019050919050565b60006020820190508181036000830152612bbc81612b80565b9050919050565b7f4552433732313a20696e76616c696420746f6b656e2049440000000000000000600082015250565b6000612bf9601883612198565b9150612c0482612bc3565b602082019050919050565b60006020820190508181036000830152612c2881612bec565b9050919050565b7f4552433732313a2061646472657373207a65726f206973206e6f74206120766160008201527f6c6964206f776e65720000000000000000000000000000000000000000000000602082015250565b6000612c8b602983612198565b9150612c9682612c2f565b604082019050919050565b60006020820190508181036000830152612cba81612c7e565b9050919050565b7f4f776e61626c653a206e6577206f776e657220697320746865207a65726f206160008201527f6464726573730000000000000000000000000000000000000000000000000000602082015250565b6000612d1d602683612198565b9150612d2882612cc1565b604082019050919050565b60006020820190508181036000830152612d4c81612d10565b9050919050565b7f4552433732313a207472616e736665722066726f6d20696e636f72726563742060008201527f6f776e6572000000000000000000000000000000000000000000000000000000602082015250565b6000612daf602583612198565b9150612dba82612d53565b604082019050919050565b60006020820190508181036000830152612dde81612da2565b9050919050565b7f4552433732313a207472616e7366657220746f20746865207a65726f2061646460008201527f7265737300000000000000000000000000000000000000000000000000000000602082015250565b6000612e41602483612198565b9150612e4c82612de5565b604082019050919050565b60006020820190508181036000830152612e7081612e34565b9050919050565b7f4e487b7100000000000000000000000000000000000000000000000000000000600052601160045260246000fd5b6000612eb182612159565b9150612ebc83612159565b925082821015612ecf57612ece612e77565b5b828203905092915050565b6000612ee582612159565b9150612ef083612159565b9250827fffffffffffffffffffffffffffffffffffffffffffffffffffffffffffffffff03821115612f2557612f24612e77565b5b828201905092915050565b7f4f776e61626c653a2063616c6c6572206973206e6f7420746865206f776e6572600082015250565b6000612f66602083612198565b9150612f7182612f30565b602082019050919050565b60006020820190508181036000830152612f9581612f59565b9050919050565b7f4552433732313a206d696e7420746f20746865207a65726f2061646472657373600082015250565b6000612fd2602083612198565b9150612fdd82612f9c565b602082019050919050565b6000602082019050818103600083015261300181612fc5565b9050919050565b7f4552433732313a20746f6b656e20616c7265616479206d696e74656400000000600082015250565b600061303e601c83612198565b915061304982613008565b602082019050919050565b6000602082019050818103600083015261306d81613031565b9050919050565b7f45524337323155524953746f726167653a2055524920736574206f66206e6f6e60008201527f6578697374656e7420746f6b656e000000000000000000000000000000000000602082015250565b60006130d0602e83612198565b91506130db82613074565b604082019050919050565b600060208201905081810360008301526130ff816130c3565b9050919050565b7f4552433732313a20617070726f766520746f2063616c6c657200000000000000600082015250565b600061313c601983612198565b915061314782613106565b602082019050919050565b6000602082019050818103600083015261316b8161312f565b9050919050565b7f4552433732313a207472616e7366657220746f206e6f6e20455243373231526560008201527f63656976657220696d706c656d656e7465720000000000000000000000000000602082015250565b60006131ce603283612198565b91506131d982613172565b604082019050919050565b600060208201905081810360008301526131fd816131c1565b9050919050565b60006132108285612aa3565b915061321c8284612aa3565b91508190509392505050565b600081519050919050565b600082825260208201905092915050565b600061324f82613228565b6132598185613233565b93506132698185602086016121a9565b613272816121dc565b840191505092915050565b600060808201905061329260008301876122d3565b61329f60208301866122d3565b6132ac6040830185612163565b81810360608301526132be8184613244565b905095945050505050565b6000815190506132d8816120ca565b92915050565b6000602082840312156132f4576132f3612094565b5b6000613302848285016132c9565b91505092915050565b600061331682612159565b91507fffffffffffffffffffffffffffffffffffffffffffffffffffffffffffffffff82141561334957613348612e77565b5b600182019050919050565b7f4e487b7100000000000000000000000000000000000000000000000000000000600052601260045260246000fd5b600061338e82612159565b915061339983612159565b9250826133a9576133a8613354565b5b828204905092915050565b60006133bf82612159565b91506133ca83612159565b9250826133da576133d9613354565b5b828206905092915050565b7f4e487b7100000000000000000000000000000000000000000000000000000000600052603260045260246000fdfea2646970667358221220d7bb7fa1b1858c19e79088e64c259563c6645ed3d8c8dea85c56a9c076fe4baf64736f6c63430008090033",
  "linkReferences": {},
  "deployedLinkReferences": {}
}